:100000000C9468050C94AF050C94AF050C94AF05E7
:100010000C94AF050C94AF050C94AF050C94AF0590
:100020000C94AF050C94AF050C94782E0C944C2FC7
:100030000C9400290C94AF050C94AF050C94AF05FB
:100040000C94AF050C94AF050C94AF050C94AF0560
:100050000C94AF050C9457290C94AF050C94AF0584
:100060000C94AF050C94AF050C94AF050C94AF0540
:100070000C94AF050C94AF050C94AF050C94AF0530
:100080000C94AF050C94AF050C94AF050C94AF0520
:100090000C94AF050C94AF050C94AF050C94AF0510
:1000A0000C94AF050C94AF050C94AF054C696768D0
:1000B00074002D2D2D2D2D007363723A2E00736365
:1000C000723A2A006361703A2E006361703A2A0026
:1000D0006E756D3A2E006E756D3A2A005374617418
:1000E00073002D2D2D2D2D0020554E4400205247FC
:1000F0004200204E41560020424153004C61796538
:10010000720030300001535400550056425F0060C9
:1001100000610057005C005D005E00000059005A5D
:10012000005B0000006200295D6300580049004A3E
:10013000004B0001534C004D004E00000000000039
:1001400000000000000000520000000000500051BC
:10015000004F000000C45CCE5CC35C0100C75CC6FD
:100160005C00000000C95CC85C00000000CB5CCAF9
:100170005C00000000005C000000000000000000C7
:1001800000000000002A2B280000000000000000F2
:10019000000000000000000029000000002C1E34B8
:1001A00020212224342627252E362D3738271E1FBE
:1001B000202122232425263333362E37381F0405E9
:1001C000060708090A0B0C0D0E0F10111213141557
:1001D000161718191A1B1C1D2F3130232D35040535
:1001E000060708090A0B0C0D0E0F10111213141537
:1001F000161718191A1B1C1D2F3130354C00000022
:1002000000000000000000000000000000000000EE
:10021000007E0F00D4FFFFFFC70000007832190AEC
:1002200000047F3F1F643214643214783C1E1E1495
:100230000A052223252628292A2C2D2F3032333552
:1002400036383A3B3D3E4042434547494A4C4E5082
:1002500051535557595A5C5E6062646668696B6DAC
:100260006F71737577797B7D7F81838587898A8CB0
:100270008E90929496989A9C9E9FA1A3A5A7A8AAB7
:10028000ACAEAFB1B3B4B6B8B9BBBCBEBFC1C2C3EC
:10029000C5C6C7C9CACBCCCDCED0D1D2D2D3D4D586
:1002A000D6D7D7D8D9D9DADADBDBDBDCDCDCDCDCAF
:1002B000DDDDDDDDDCDCDCDCDCDBDBDBDADAD9D987
:1002C000D8D7D7D6D5D4D3D2D2D1D0CECDCCCBCA15
:1002D000C9C7C6C5C3C2C1BFBEBCBBB9B8B6B4B33B
:1002E000B1AFAEACAAA8A7A5A3A19F9E9C9A9896D1
:1002F0009492908E8C8A89878583817F7D7B7977A4
:100300007573716F6D6B6968666462605E5C5A5983
:1003100057555351504E4C4A4947454342403E3D44
:100320003B3A3836353332302F2D2C2A29282625D2
:100330002322FFAA7F5540000101010101010101B3
:100340000102020202020202020203030303030388
:100350000303040404040404040505050505060656
:100360000606060707070707080808080909090914
:100370000A0A0A0B0B0B0C0C0C0D0D0D0E0E0E0FBA
:100380000F0F10101111111212131314141515164A
:10039000161717181819191A1A1B1B1C1D1D1E1EBB
:1003A0001F2020212222232424252626272829290C
:1003B0002A2B2C2D2D2E2F30313232333435363737
:1003C00038393A3B3C3D3E3F404142434445464735
:1003D00048494A4C4D4E4F50515354555658595A0E
:1003E0005B5D5E5F616264656668696B6C6D6F70B2
:1003F00072737577787A7B7D7E8082838587888A21
:100400008C8E8F91939596989A9C9EA0A2A3A5A757
:10041000A9ABADAFB1B3B5B7BABCBEC0C2C4C6C953
:10042000CBCDCFD1D4D6D8DBDDDFE2E4E7E9EBEE0C
:10043000F0F3F5F8FAFDFF00AE00AF00DA0281FF3D
:10044000D9F1DB20A4A62EAF00A0C000A1C800AE49
:10045000D580A81FD300408D1420000000000000AC
:10046000003E5B4F5B3E003E6B4F6B3E001C3E7C94
:100470003E1C00183C7E3C18001C577D571C001C7D
:100480005E7F5E1C0000183C180000FFE7C3E7FF1A
:1004900000001824180000FFE7DBE7FF0030483AAF
:1004A000060E00262979292600407F050507004011
:1004B0007F05253F005A3CE73C5A007F3E1C1C0844
:1004C00000081C1C3E7F0014227F2214005F5F0086
:1004D0005F5F0006097F017F00006689956A006002
:1004E000606060600094A2FFA2940008047E04088B
:1004F0000010207E20100008082A1C0800081C2A72
:100500000808001E10101010000C1E0C1E0C0030ED
:10051000383E383000060E3E0E0600000000000097
:100520000000005F000000000700070000147F14B7
:100530007F1400242A7F2A120023130864620036E5
:100540004956205000000807030000001C2241000B
:10055000000041221C00002A1C7F1C2A0008083EC3
:100560000808000080703000000808080808000033
:1005700000606000002010080402003E5149453E22
:100580000000427F4000007249494946002141492C
:100590004D33001814127F10002745454539003CA3
:1005A0004A49493100412111090700364949493674
:1005B00000464949291E0000001400000000403494
:1005C0000000000008142241001414141414000048
:1005D00041221408000201590906003E415D594EAE
:1005E000007C1211127C007F49494936003E41418E
:1005F0004122007F4141413E007F49494941007FFE
:1006000009090901003E41415173007F0808087F34
:100610000000417F4100002040413F01007F08145D
:100620002241007F40404040007F021C027F007F4B
:100630000408107F003E4141413E007F0909090640
:10064000003E4151215E007F091929460026494993
:1006500049320003017F0103003F4040403F001F3B
:100660002040201F003F4038403F006314081463BF
:10067000000304780403006159494D4300007F41A1
:10068000414100020408102000004141417F000464
:1006900002010204004040404040000003070800FF
:1006A000002054547840007F2844443800384444A3
:1006B000442800384444287F00385454541800001B
:1006C000087E09020018A4A49C78007F080404781E
:1006D0000000447D4000002040403D00007F102885
:1006E00044000000417F4000007C04780478007CD6
:1006F0000804047800384444443800FC18242418C2
:100700000018242418FC007C0804040800485454F1
:1007100054240004043F4424003C4040207C001C3E
:100720002040201C003C4030403C0044281028441D
:10073000004C9090907C004464544C440000083677
:100740004100000000770000000041360800000270
:1007500001020402003C2623263C000000000000A9
:1007600000404040F0F8F8FF38FFF8F83FF8F8FF95
:1007700038FFF8F8F040404000000000000080C062
:10078000C0C0800000C0C08000000080C0C000C0A9
:10079000C0000080C0C00000000000C0C0C0C0C0D9
:1007A00000C0C000000000000000000000000000C9
:1007B0000000000000000000000000000000000039
:1007C0000000000000000000000000000000000029
:1007D00000000000000000000000C0F0F8FC3E1E19
:1007E00006010000007F4141417F007F4141417F80
:1007F000000080C0E07E5B4F5BFEC00000C000DCFC
:10080000D7DEDEDED7DC00C0000000000000000004
:1008100000000000000000000000000000000000D8
:1008200000494949FFFFFFFFE0DFBFBF00BFBFDF57
:10083000E0FFFFFFFF49494900000000001F3F6043
:1008400060E0BF1F007F7F071E381E077F7F007F8D
:100850007F0E1F3B716000000000007F7F0C0C0CBE
:10086000007E7E007F7E0303007F7E03037E7E0387
:10087000037F7E000F3E703C063C703E0F00327BD3
:1008800049493F7E007F7E0303001E3F69696F2652
:1008900000000000000000000000030F1F3F3C7834
:1008A00070600000007F4141417F007F4141417FF6
:1008B00000307B7F7830202030787F3B0003000FB2
:1008C0007F0F0F0F7F0F00030000000000000000EB
:1008D0000000000000000000000000000000000018
:1008E00000010101070F0F7F0F7F0F0F7E0F0F7F9A
:1008F0000F7F0F0F07010101000000000000000042
:1009000000000101000000000000000000000000E5
:1009100000000000000000000000000000000000D7
:1009200000000000000000000000000000000000C7
:1009300000000000000000000000000000000000B7
:1009400000000000000000000000000000000000A7
:100950000000000000000000000000000000000097
:100960000000000000000000000000000000000087
:100970000000000000000000000000000000000077
:100980000000000000000000000000000000000067
:1009900000000000000000000000000E035900618C
:1009A000006D0070006100640000001E034D0061D6
:1009B0000074007400690061002000440061006C54
:1009C000002000420065006E0000000403090409D5
:1009D000025B00030100A0FA090400000103010109
:1009E00000092111010001224000070581030800D0
:1009F0000A0904010002030000000921110100019D
:100A000022220007058203200001070503032000BE
:100A10000109040200010300000009211101000185
:100A20002232000705840320000A12011001000091
:100A30000008505969830100010200010660FF09A6
:100A400061A1010962150026FF0095207508810249
:100A50000963150026FF00952075089102C0050165
:100A60000980A101850319012AB700150126B700E5
:100A7000950175108100C0050C0901A101850419BB
:100A8000012AA002150126A002950175108100C05F
:100A900005010906A101050719E029E7150025014F
:100AA00095087501810295017508810105071900F6
:100AB00029FF150026FF0095067508810005081915
:100AC000012905950575019102950175039101C0F4
:100AD00011241FBECFEFDAE0DEBFCDBF04B603FEA8
:100AE00027C080913D0590913E05A0913F05B091B2
:100AF00040058730904BA740B04BD1F410923D0594
:100B000010923E0510923F051092400514BE84B726
:100B1000877F84BF0FB6F894A895809160008861A4
:100B200080936000109260000FBEE0E0F8E309954A
:100B300011E0A0E0B1E0EAE5FBE602C005900D920D
:100B4000AA3FB107D9F725E0AAEFB1E001C01D9295
:100B5000AD33B207E1F70E943E2B0C945C350C9448
:100B6000000089329D4541F4FB018281882321F0F8
:100B700082E091E00E94D20781E0089583E0089529
:100B80000F931F93CF93DF9360E08CEF90E00E9470
:100B90005E186091D9027091DA028091DB02909127
:100BA000DC020E945B27813009F483C0882339F07E
:100BB000823009F482C060E088EE90E003C060E01B
:100BC00087EF90E00E9470180E94FC1CC82F60E024
:100BD00082EE90E00E945E1860E08CED90E00E9452
:100BE0005E1880ED90E0C0FF02C086ED90E060E00E
:100BF0000E945E1884EC90E0C1FF02C08AEC90E095
:100C000060E00E945E1888EB90E0C2FF02C08EEBAD
:100C100090E060E00E945E1860E082EB90E00E944D
:100C20005E1860E08CEA90E00E945E180E94E50C7D
:100C3000C1E16C2F0E94FE30082F0E94E20C6C2F45
:100C40000E94FE30182F0E94DF0CD82FD695D69523
:100C5000D6950E94900CC82F0E94980C811131C02B
:100C60008EE21F920F931F921F931F92DF931F928A
:100C7000CF931F928F938BE291E09F938F931F925C
:100C80008DE18F938AEF91E09F938F930E941F32A3
:100C90008DB79EB740960FB6F8949EBF0FBE8DBF1E
:100CA00060E08AEF91E0DF91CF911F910F910C945A
:100CB000421860E082EF90E085CF60E08DEE90E03A
:100CC00081CF8AE2CECF81E008950C94B1050895DA
:100CD0000C9467061F93CF93DF9300D000D00F9240
:100CE000CDB7DEB749835A836B83309191028981F6
:100CF0009A8131111DC06623B9F02223A9F00E9408
:100D00001726182F682F89819A810E94C42569812E
:100D10007A81812F0F900F900F900F900F90DF919D
:100D2000CF911F910C9409160E94F025182FEFCF38
:100D30000E94172669817A81EDCFFC01262F408120
:100D400051816281738184810C946A06CF93DF9311
:100D5000EC0160E00E949D06BE01DF91CF910C94F2
:100D60006806FF920F931F93CF93DF93E82FF0E075
:100D7000E358FE4FF490C82FC695C695C695D0E0AF
:100D8000FE01E35FFD4F0491877010E0082E02C062
:100D9000159507950A94E2F701701127C350DE4FAD
:100DA000FE01C491D0E002C0D595C7958A95E2F7BF
:100DB000C170DD270115110519F081EE0E943D1E5D
:100DC000209719F086EE0E943D1E8F2D0E94AB1ECB
:100DD000CD2B19F086EE0E94831E012B41F081EE8F
:100DE000DF91CF911F910F91FF900C94831EDF91A3
:100DF000CF911F910F91FF900895EF92FF920F9363
:100E00001F93CF93DF93EC01162F0AE0888188238C
:100E100009F454C0813009F04EC08981813099F4C1
:100E20007E0122E0E20EF11C8A810E94AB1EE701E6
:100E30002196812F815050F3EFE9FFE03197F1F7D0
:100E400000C00000F7CF823041F47E0182E0E80E5E
:100E5000F11C8A810E943D1EEACF833041F47E015D
:100E6000E2E0EE0EF11C8A810E94831EE0CF843006
:100E700011F02196DDCF2A81229690E080E0AE012C
:100E80004F5F5F4F2053330B2A30310548F00197F5
:100E900078F2EFE9FFE03197F1F700C00000F7CFFB
:100EA000089FB001099F700D1124C901860F971F7B
:100EB0002981EA01E4CF0E94B106BACFDF91CF9138
:100EC0001F910F91FF90EF90089560E00C94FD0644
:100ED000EF92FF920F931F93CF93DF938C01F62E27
:100EE0008AE0E82EF8018491882309F454C0813007
:100EF00009F04DC0E8012196FE018491813091F402
:100F00002196FE0184910E94AB1E8E010F5F1F4F40
:100F10008F2D815038F3EFE9FFE03197F1F700C0F2
:100F20000000F7CF823039F4E8012296FE01849167
:100F30000E943D1EEACF833039F4E8012296FE017B
:100F400084910E94831EE1CF8430F9F6E801229655
:100F5000FE01249190E080E0FE0131962053330B96
:100F60002A30310548F0019780F2EFE9FFE0319730
:100F7000F1F700C00000F7CFE89EA001E99E500DF8
:100F80001124C901840F951F2491EF01E5CF0E9420
:100F9000B106E801BACFDF91CF911F910F91FF9079
:100FA000EF90089560E00C9468078F929F92AF9243
:100FB000BF92CF92DF92EF92FF920F931F936B013C
:100FC0007C0181E090E0A0E0B0E04C015D0104C054
:100FD000880C991CAA1CBB1C4A95D2F7B501A40128
:100FE0004C015D0104C0880C991CAA1CBB1C2A95ED
:100FF000D2F7482959296A297B2904C0880F991FEB
:10100000AA1FBB1F0A95D2F78A019B010C211D2143
:101010002E213F21041715072607370789F48C294D
:101020009D29AE29BF29BC01CD011F910F91FF90D1
:10103000EF90DF90CF90BF90AF909F908F900895EA
:1010400080959095A095B0958C219D21AE21BF21D2
:10105000EACF0F93382F262F6091D9027091DA02D0
:101060008091DB029091DC02042F432F0E94D50770
:101070000F910C9402250E948E290E94AE278111A7
:1010800002C00E9452280C94A10A0C94A40A08954C
:101090000E942B210E9447082FEF84E39CE02150FF
:1010A00080409040E1F700C000000C947B290F9332
:1010B0001F93CF93DF93EC0161E00E949D068C01AA
:1010C000BE010E94DF13882389F1BE01C8010E947E
:1010D0006506882359F1BE01C8010E94631A88235E
:1010E00029F1BE01C8010E94B51A8823F9F0BE019A
:1010F000C8010E94D81B8823C9F0BE01C8010E9404
:10110000EC12882399F08A81882339F001158CE547
:10111000180751F00F3D1C4579F0CE01DF91CF91BA
:101120001F910F910C9463060E94480880E0DF91A4
:10113000CF911F910F9108950E945228F7CF0895E3
:101140000C949F0881E008950C94A208CF93C82FB7
:101150000E94A0088C2FCF910C94A40890E080E00E
:1011600008950895FC01EE0FFF1FE35EFD4F85918A
:1011700094910895CF93DF930E9409160E94C609A7
:10118000EC01811520E5920708F041C0811530E49B
:10119000930708F0B4C0803E910518F5803C910596
:1011A00008F09DC0883A910570F4853A910508F0E1
:1011B0008EC081309105F9F00097E9F00497D8F4DA
:1011C000D0E0C0E018C08F3B9105D0F7C85AD0E0FE
:1011D000CC0FDD1FC45BDE4F0990D881C02DD464D5
:1011E0000AC08115904258F4C11581E0D80718F45F
:1011F000C83ED10528F7CE01DF91CF910895C115E2
:1012000090E3D90708F071C0CE019F706AC08115C4
:1012100025E5920758F5811534E5930708F09EC03F
:10122000811542E5940750F4C11581E5D80708F40B
:1012300069C0DC2FCC27C16FD06ADDCF982F96957F
:1012400096959E0123703327C115D34508F077C0CA
:10125000C1E0D0E002C0CC0FDD1F2A95E2F720E20A
:10126000929FC0011124C82BD92B67C0C11589E5F5
:10127000D807A8F4C11598E5D90708F074C0C115BE
:1012800026E5D20708F09CCF8C2F0E945D0AC82F5C
:10129000D0E0DC2FCC27CC27DF71D062ACCFC115DA
:1012A0003AE5D30708F464C0CE0190568115904208
:1012B00008F086CF8D2F8F710E945D0A90E0982FE5
:1012C000882788279F719C012C2BE901E6CFC55AFE
:1012D000D0E0C658DE4FC881D0E0D0648CCF805CAF
:1012E00091090E94B208EC0186CFCE019927D3FF65
:1012F00003C0EC01D86C7FCFEC01D06C7CCFDF70E9
:10130000D06A79CFCE01E4E096958795EA95E1F72A
:1013100083702C2F26952695237090E2299F9001AB
:101320001124382B8C2F8370C1E0D0E002C0CC0F89
:10133000DD1F8A95E2F7C22BD32BDC685CCFC1E0BE
:10134000D0E002C0CC0FDD1F2A95E2F730E2939F78
:10135000C0011124C82BD92BDA684DCFD82FCC2748
:10136000C46FD06A48CFDC2FCC27C06FD06A43CF80
:101370008C2F8F700E945D0A34E0D695C7953A9500
:10138000E1F7CF709C2FEC01D06935CF8238910501
:10139000B1F1B0F48133910509F475C048F4893294
:1013A000910509F469C08A32910509F473C0089562
:1013B0008533910509F459C08933910501F10895E8
:1013C000833E9105A9F138F4803E9105F9F0823E03
:1013D000910549F10895863E9105A9F1873E910551
:1013E000C9F1843E910519F520912F0521FF1FC0F9
:1013F00080912E0584FD14C087EE90E00895209121
:101400002E052370A1F080EE90E0089520912E0526
:1014100020FD47C030912F0530FF09C024FF44C094
:1014200090E080E004C020912E0522FDF7CF0895C2
:1014300020912E0522FD3BC030912F0530FDE3CFDA
:1014400024FFF5CFEDCF20912E0523FFF0CF24FD13
:10145000E7CFD2CF20912E0523FD2CC030912F0550
:1014600031FFEECF84EE90E0089520912E0525FF08
:10147000DECF89E290E0089520912E0525FFD7CF99
:1014800085E390E0089520912E0526FFD0CF8AE2D3
:1014900090E0089520912E0526FFC9CF81E390E0CA
:1014A000089589E390E0089583EE90E0089582EE38
:1014B00090E0089586EE90E0089590912E0592FFB9
:1014C00006C0282F28712830F9F4877F846093FFA5
:1014D00006C0282F28712831F1F4877E846120917D
:1014E0002F0520FF06C0382F38713830D9F4877F98
:1014F000816021FF06C0282F28712831D1F4877E12
:10150000816194FD877E0895282F24712430F9F697
:101510008B7F8860DCCF282F2471243101F78B7EEC
:101520008861DDCF382F3171313019F78E7F8860B7
:10153000E0CF282F2171213121F78E7E8861E1CF04
:1015400008950C94A00A08950C94A30AE82FF0E0E3
:10155000E150FD4F80810895089580EA8A95F1F762
:101560000895F894E82FE295EF70F0E031A1282F6C
:101570002F7081E090E001C0880F2A95EAF7982F3C
:101580009095932391A392A1892B82A37894089597
:1015900086E60E94B10A87E90E94B10A86EC0E94A1
:1015A000B10A84E30E94B10A85E30E94B10A81E393
:1015B0000E94B10A83E30E94B10A82E30E94B10A49
:1015C00086E30E94B10AAAEFB2E01C92EFEFF2E0CC
:1015D000108211961C921197118212961C921297EA
:1015E000128213961C921397138214961C921482E3
:1015F00085E00E94720B0C943B08CF92DF92EF9231
:10160000FF920F931F93CF93DF93C1E8D1E00AEFCE
:1016100012E0D12CEE24E394F12C8991F894E82F78
:10162000E295EF70F0E021A18F70A70102C0440F96
:10163000551F8A95E2F7CA01922F982B91A392A188
:101640008095892382A378940E94AD0AEDE7F1E0AA
:1016500030E020E0C12C4191A42FA295AF70B0E002
:1016600090968C9190E04F7002C0959587954A9521
:10167000E2F780FD33C08E2D022E01C0880F0A9440
:10168000EAF7C82A2F5F3F4F2430310521F7FE01CA
:10169000319780810E94B10AF8018081C81601F15A
:1016A000C08281E0D82A0F5F1F4FF1E0C638DF0704
:1016B00009F0B3CF2D2D45E06FEF72E08AEF92E095
:1016C0000E94730B0E9445088D2DDF91CF911F91D1
:1016D0000F91FF90EF90DF90CF90089580E0D1CFF1
:1016E00080E0E0CF0895FF920F931F93CF93DF9395
:1016F000F82E092F162FD72FC42F222349F081E06F
:1017000080931A020E943029909319028093180244
:1017100080911A028823A1F08091180290911902F9
:101720000E944829069760F0EF2DF02FA12FBD2FC2
:10173000CE0FDF2FD11DEC17FD0741F410921A02D6
:10174000DF91CF911F910F91FF90089581918D931B
:10175000F2CFEF92FF920F931F93CF93DF93EB01A2
:10176000E82FD11110C0442321F0F0E0E95CFC4FD8
:10177000E4916E2F7E2F8E2FDF91CF911F910F91CD
:10178000FF90EF9008950D2F10E0282F30E04423B4
:1017900029F0295C3C4FF901249130E0F6E0CF9F1D
:1017A000C0011124EFEFF0E0BF010E941831AB013E
:1017B0008C2F90E0880F991FA5E5A49FB001A59FED
:1017C000700D1124861B970B982F990F980FBF014E
:1017D000601B710B629FD001639FB00D729FB00DB3
:1017E00011248B2F9D9FB0011124672F7727EF01C4
:1017F000C61BD70BBE01629FE001639FD00D729F95
:10180000D00D11247F01E91AF108E09EB001E19E9C
:10181000700DF09E700D1124672F7727E61BF70BD4
:10182000E29F8001E39F100DF29F100D1124E12F24
:10183000722F4230510599F048F44115510569F075
:101840004130510581F0EB2F8D2F07C044305105F9
:1018500069F080F046305105B1F76E2F8DCFE22F41
:101860007B2F812FFACFE22F7D2FF7CFEB2F822F07
:10187000712FF3CF7B2F822FED2FEFCF41E00C9410
:10188000A90B08950C943E0CCF93DF93762FE901BA
:10189000682F842F0E94420C798368838A83DF91AA
:1018A000CF91089580910403982F9E7F29F4817031
:1018B00082608093040308958635E8F3817084651F
:1018C000F8CF88E090E00C94C634CF92DF92EF928C
:1018D000FF926B017C010E94520CB701A60188E0C7
:1018E00090E0FF90EF90DF90CF900C94E434609103
:1018F00004037091050380910603909107030C94F3
:10190000650CE4E0F3E083E0808311828FEF828353
:101910008383148260817181828193810C94650C30
:101920008091040380FF02C08695089580E00895A9
:10193000809104038170089590910803933018F406
:101940009F5F90930803882351F060910403709186
:10195000050380910603909107030C94650C08958C
:1019600081E00C949C0C90910803992319F09150FC
:1019700090930803882351F060910403709105034C
:1019800080910603909107030C94650C089581E003
:101990000C94B30C80910803089580930803662388
:1019A00051F06091040370910503809106039091BA
:1019B00007030C94650C089560E00C94CD0C8091A5
:1019C0000503089580910603089580910703089503
:1019D00070E00C945C13609108018091040380FF17
:1019E0000AC08091070123E0829FC0011124875F14
:1019F0009C4F0C94E80C8091090190910A0123E01E
:101A0000829FF0011124E75FFC4F891750F7118284
:101A1000108212828F5F3396F8CF9091040390FF6B
:101A200014C09091090120910A0133E0939FF001C5
:101A30001124E75FFC4F921710F00C94EB0C81839C
:101A4000608342839F5F3396F6CF0895CF93DF93F1
:101A500000D00F92CDB7DEB79091040390FF0AC07B
:101A60009E012F5F3F4F0E94440C4B8169818A8108
:101A70000E940D0D0F900F900F90DF91CF91089560
:101A8000CF93DF93EC01EC81F0E0EE5CFD4F4491ED
:101A9000E4E0F3E0628181810E94260D8C818F5FFA
:101AA0008C83DF91CF910895CF93DF93EC01E4E035
:101AB000F3E0438162818C810E94260D8C818F5FCF
:101AC0008C83DF91CF9108950F931F93CF93DF9372
:101AD00000D00F92CDB7DEB78C0180911B0281112F
:101AE0000AC09E012F5F3F4F4FEF6FEF0E94440CE3
:101AF0008A8180931B02F8016481613069F08091D2
:101B00001B0240E0662361F040E0623011F4409136
:101B10001B0280E060E004C060911B0240E080E0B6
:101B20000E940D0DF801848190E0019663E070E061
:101B30000E942C3184830F900F900F90DF91CF91F2
:101B40001F910F910895AF92BF92CF92DF92EF92C3
:101B5000FF920F931F93CF93DF9300D00F92CDB7D7
:101B6000DEB7182FF62E042FE22E9091040390FF7B
:101B700029C0E92FE695AE2FB0E0AA57BE4F8C9151
:101B8000809352029E7F923059F59E012F5F3F4F06
:101B9000812F0E94440C4B8169818A810E940D0D26
:101BA00010930503F092060300930703EE2051F013
:101BB00060910403709105038091060390910703DF
:101BC0000E94650C0F900F900F90DF91CF911F91A5
:101BD0000F91FF90EF90DF90CF90BF90AF9008955E
:101BE000823019F400910703DBCF863019F410918D
:101BF0000503D6CF8930D9F3893191F6E9518E2F7B
:101C00008170D82EE695F0E0EE5CFC4FA590B49084
:101C1000C12CBB2460910B01C61618F00E94EB0C7E
:101C2000BFCF2C2D30E0A29EC001A39E900DB29E8E
:101C3000900D112470E00E941831812FD11013C033
:101C4000860F40910901420F532F511D9A01220F17
:101C5000331F240F351F275F3C4F402F6F2D0E94ED
:101C6000440CC394D7CF861BECCFE4E0F3E0918122
:101C7000282F4381628188E0890F0C94A30D81E0B5
:101C80000C94350EE4E0F3E09181282F43816281CA
:101C900088EF890F0C94A30D81E00C94420EE4E0D0
:101CA000F3E0628121E1620F08F46FEF282F438196
:101CB00081810C94A30D81E00C944F0EE4E0F3E0DD
:101CC000628121E1621B08F460E0282F4381818159
:101CD0000C94A30D81E00C945E0EE4E0F3E04381EC
:101CE00021E1420F08F44FEF282F628181810C948B
:101CF000A30D81E00C946D0EE4E0F3E0438121E15B
:101D0000421B08F440E0282F628181810C94A30DCE
:101D100081E00C947C0E20E00C94A30DEF92FF92D6
:101D20001F93CF93DF93EC0110E0EE24EA94F12CA3
:101D300060910B01161770F00E94EB0C9A818C8158
:101D400090FF27C08F5F8C83DF91CF911F91FF9011
:101D5000EF90089520910901422F410F5527551FFB
:101D6000CA019A01220F331F280F391F275F3C4FEA
:101D700070E0C7010E942C31962F8C81409107039F
:101D800060910603199F800D11240E94440C1F5F6F
:101D9000CFCF8150D8CFAF92BF92CF92DF92EF9248
:101DA000FF920F931F93CF93DF93FC0182810FEF7C
:101DB00080FF01E010E049E0A42E80910B0118178C
:101DC000C8F00E94EB0C80911D02013009F055C053
:101DD000811102C080910B01815080931D02DF911F
:101DE000CF911F910F91FF90EF90DF90CF90BF9018
:101DF000AF900895C0910901C12ED12CCC0DDD2DDD
:101E0000D11DCE01880F991FC80FD91FC75FDC4FA6
:101E1000198218821A8234E0E32EF12CB12C8091C1
:101E20001D028B0D8A301CF16A2D0E940A31892F08
:101E3000082E000C990BC816D90691F4809107035F
:101E40008E9DA0018F9D500D112455954795559558
:101E500047959E0160910603809105030E94440C02
:101E6000B00EF1E0EF1AF108D1F61F5FA6CF87FFA1
:101E7000DFCF90910B01890FDBCF90E0019660914D
:101E80000B0170E00E942C31A8CF0F931F93CF93CA
:101E9000DF938091090190910A0123E0829FF00174
:101EA0001124E75FFC4F891740F1C0E0D3E0609157
:101EB0000B01C61740F10E94EB0C209105018091A7
:101EC0001C02820F80931C0290910601920F909346
:101ED0000601191654F4082E000C990B40910B01C1
:101EE0004150550B841795071CF02195209305014F
:101EF000DF91CF911F910F9108951182108212826C
:101F00008F5F3396D0CF0C2F10E070E0C8010E9495
:101F10002C3120910901820F482F50E020911C02A2
:101F2000022E000C330B02171307BCF020910601A0
:101F3000022E000C330B201731077CF08D9F90018F
:101F40001124275F3C4F4091070360910603809165
:101F500005030E94440CCF5FAACFFA01EE0FFF1FCA
:101F6000E40FF51FE75FFC4F118210821282F3CF5E
:101F70008F929F92AF92BF92CF92DF92EF92FF9299
:101F80000F931F93CF93DF93EC014C81042F10E04C
:101F90009801D8010E9477319B01AC010E948D31DC
:101FA0004B015C01E0E2F0E0E01BF10BA5E5B0E0E5
:101FB000AC019B010E948D316B017C019F01DF010F
:101FC0000E946F319B01AC010E9498319B01AC01D2
:101FD000280D391D4A1D5B1DC701B6010E94403105
:101FE000F22E822F90E039E23F1560F143E0249F0A
:101FF0009001112435952795122F109500E085E565
:10200000E82EEF1880910B01081758F10E94EB0C95
:102010009C8181E0992319F0903219F48FEF80931D
:10202000040180910401890F8C83DF91CF911F916E
:102030000F91FF90EF90DF90CF90BF90AF909F9067
:102040008F90089525E530E0B901681B790B9B015D
:10205000220F331F260F371F37FFCCCF2F5F3F4F85
:10206000C9CF8E2D01FD8F2D20910901622F600FA8
:102070007727771F9B01220F331F260F371F275FFC
:102080003C4F412F609106030E94440C0F5FBACF72
:102090000F931F93CF93DF93EC0110E000E090913A
:1020A0000B019017110609F06CF40E94EB0C8C8167
:1020B00090E00196817099278C83DF91CF911F91D9
:1020C0000F91089520910901A801420F511D9A0115
:1020D000220F331F240F351F275F3C4F4C81609127
:1020E00006038091050396959017110651F04CF068
:1020F000442349F0409107030E94440C0F5F1F4F97
:10210000CECF4423B9F340E0F7CF8F929F92AF92A6
:10211000BF92CF92DF92EF92FF920F931F93CF93D4
:10212000DF93FC01B280948081E0848300E015E0BD
:102130005BE4A52E88248394EE24EA94F12C7BE4BE
:10214000C72ED12C80910B01081770F0DF91CF9131
:102150001F910F91FF90EF90DF90CF90BF90AF90C5
:102160009F908F900C94EB0CC02FD0E01C9FF0013F
:102170001D9FF00D1124E25EFD4F91101CC01382D3
:10218000128220910901CE01820F911D9C01220F24
:10219000331F280F391F275F3C4F1C9FF0011D9FE5
:1021A000F00D1124E25EFD4F4281618180810E9429
:1021B000440C0F5FC7CF2381222379F12150238361
:1021C00034818A2D821B311101C0822F1C9FF001A6
:1021D0001D9FF00D1124E25EFD4F90910703899F32
:1021E000C0011124B6010E9418316283211104C07C
:1021F000332311F01482A38222E02B1510F21C9FCE
:10220000F0011D9FF00D1124E25EFD4F809105034A
:102210008083809106038183B4CF0E94EC318230A9
:1022200091400CF0AECF82E08B1530F50E94EC317E
:10223000B7010E942C311C9FF0011D9FF00D11244D
:10224000E25EFD4F808322E02B15C8F40E94EC3142
:10225000209106032695622F70E00E942C31280FF2
:102260001C9FF0011D9FF00D1124E25EFD4F2183A4
:102270001282A382848285CF80910503DCCF2091D6
:102280000603EECFE4E0F3E080818E7F80836081FF
:102290007181828193810E94650C109253022FEF0D
:1022A00080E792E0215080409040E1F700C00000BC
:1022B0000C94EB0CE4E0F3E080818E7F808310923D
:1022C00053022FEF80E792E0215080409040E1F7E9
:1022D00000C000000C94EB0C60910403669570E064
:1022E0004BE050E08CE091E00E940532892B19F41C
:1022F00081E0809353020E94302990934C02809396
:102300004B0208959091040390FF35C091708111A4
:1023100028C0926090930403662351F060910403F7
:102320007091050380910603909107030E94650C4C
:1023300060910403669570E04BE050E08CE091E022
:102340000E940532892BA1F01092530281E0809304
:102350004E024091070360910603809105030C949F
:102360008B0E8B3210F09465D5CF880F982BD2CF7F
:102370000E946C11EBCF0895682F909104039695FD
:1023800081E0890F8B3208F081E00C94821181E0AA
:102390000C94BC11682F9091040396958FEF890FD0
:1023A00009F48AE20C94821181E00C94CA1161E074
:1023B0000C948211E4E0F3E0808181608083869553
:1023C0000C94D7118091040380FD0C9442110C945D
:1023D000DA1160E00C9482118091510281112EC0BB
:1023E0000E94AE27811104C00E9452280E94810CD5
:1023F0000E94610C609304037093050380930603AD
:10240000909307036E7F61F40E94810C0E94610C1F
:10241000609304037093050380930603909307036E
:102420000E94520C109253028091040380FF03C05B
:1024300086950E94E91181E0809351020895E4E0BD
:10244000F3E080818160808386950C94E9110F937D
:102450001F93CF93DF9380915302882309F49DC08B
:1024600080915202E0910403E695E81BE0934D024F
:102470008230C9F5F0E0E25DFD4FE491CE2FD0E06F
:1024800000E41DE080914E02882389F010924E02F4
:102490000E9430299E0120953095820F931F9093C2
:1024A0004C0280934B021092500210924F02809186
:1024B0004B0290914C020E9448298C179D0708F40A
:1024C0006CC0E0914B02F0914C02CE0FDF1FD09315
:1024D0004C02C0934B028BE492E0F801DF91CF9164
:1024E0001F910F910994863049F4F0E0E55DFD4FAE
:1024F000E491CE2FD0E004E51DE0C4CF893051F443
:10250000E695F0E0E85DFD4FE491CE2FD0E00EE8D7
:102510001EE0B8CF8F3051F4E695F0E0EB5DFD4F53
:10252000E491CE2FD0E00BEC1EE0ACCF853149F426
:10253000F0E0EE5DFD4FE491CE2FD0E005E41FE02A
:10254000A1CFC8E2D0E008EB1FE0883109F49ACFB0
:10255000833239F4E0E2F2E0C591D49104E61DE063
:1025600091CFC4EFD1E008E410E1843209F48ACFBE
:10257000C0EDD7E001E41CE0853209F083CF8E2F57
:1025800063E00E94FE30E92FF0E0E35EFD4FE4914E
:10259000CE2FD0E005E810E175CFDF91CF911F91EC
:1025A0000F910895FA01811101C0FB010994CF93A5
:1025B000DF93C82FD62F0E94900C8C1740F00E94FA
:1025C000900C8D1720F4DF91CF910C94C7118C2FB4
:1025D000DF91CF910C94D7110F931F93CF938C0160
:1025E000FB01C281CC2309F465C00E94AC26827233
:1025F000F801E35CFC45E431F10538F4E25AFA4CA9
:102600000C9462310E94E211C0E08C2FCF911F9197
:102610000F91089544ED51E167EC71E10E94D212EF
:10262000F3CF47EC51E164ED71E1F8CF4CE45EE0AB
:102630006FE37EE0F3CF4FE35EE06CE47EE0EECF4D
:102640004AE65EE06BE57EE0E9CF4BE55EE06AE6F8
:102650007EE0E4CF48E85EE069E77EE0DFCF49E76F
:102660005EE068E87EE0DACF47EC5CE060EB7CE0BF
:10267000D5CF40EB5CE067EC7CE0D0CF81E00E94FE
:10268000D711C2CF65E082E00E94D712BDCF68E0CB
:1026900086E0FACF6EE089E0F7CF64E18FE0F4CF17
:1026A00067E185E1F1CF88E1EACF62E289E1ECCF31
:1026B00083E2E5CFC1E0A9CF849A41B34F7E51B305
:1026C0005061EFB7F8949B01220F331F260F371F7D
:1026D000280F391F2817390741F4EFBF8FE594E021
:1026E0000197F1F700C000000895DC016D91CD0164
:1026F00078E051BB000000C067FF41BB660F0000DF
:1027000000C000C000C041BB00C07A9591F7E2CF85
:1027100082E290E00E94BE34813289F483E290E04C
:102720000E94BE34813159F484E290E00E94BE34AC
:1027300091E0833009F090E0892F8170089580E066
:10274000FCCFCF93C82F6FEF811161E282E290E05E
:102750000E94D2346FEFC11161E183E290E00E94E8
:10276000D2346FEFC11163E084E290E0CF910C941A
:10277000D23480E00E94A1130C94A827089585E22A
:1027800090E00E94BE34682F70E090E080E00895F1
:1027900085E290E00C94D2340E94BE130E9488130C
:1027A00081110CC060E070E0CB010E94C8130E9450
:1027B00083150E946D1681E00C94A1130895CF93A8
:1027C000FB01C281CC2309F19C0122513F452031FC
:1027D000310520F582510E947D16C0E08C2FCF91EB
:1027E000089581E00E94282543E062E081E00E9494
:1027F0002908F3CF81E00E94492543E062E081E0AF
:102800000E942908EBCF82E0F6CF8031FFE59F07D9
:1028100089F381319F45B9F3C1E0E0CF8031EFE525
:102820009E07F9F281319F45C9F682E0DBCF2FEF99
:10283000FC0120830895CF93DF93EC0188818138D8
:10284000A9F028F4803871F0DF91CF910895823893
:1028500081F08338C9F70E94DF0C89830E94E20C63
:102860008A83F2CF0E94E50C8983EECF0E94900C00
:10287000FBCF0E94CA0CF8CFCF93DF93EC01888185
:102880008138E1F028F4803869F0DF91CF91089524
:10289000823811F18338C9F70E94E50C482F6A810C
:1028A000898108C0D9810E94E20CC82F0E94DF0CE8
:1028B0004D2F6C2FDF91CF910C948B0E89810E944C
:1028C000E9118981811104C0DF91CF910C945A11D3
:1028D000DF91CF910C941F128981DF91CF910C94DD
:1028E000DC0CEF92FF920F931F93CF93DF93EC01D9
:1028F000062FDC01ED91CD01E150E33108F0BFC0BE
:10290000F0E0EE58FA4C0C946231198289E08A8327
:10291000602FCE01DF91CF911F910F91FF90EF902B
:102920000C94322A8981823069F0833071F08130D1
:10293000D9F40E943C290E9468316A837B838C838E
:102940009D83E6CF0E94BF13F6CF7E01B2E0EB0E6F
:10295000F11C10E0812F0E94A60AF70181937F01EC
:102960001F5F1530B9F7D4CF602FCE010E94171426
:10297000CFCF89818230C1F76A817B818C819D8133
:102980000E9468310E94C813C3CF4B816A8189813C
:102990000E9455159827892798279D838C83B8CF47
:1029A0002C813D813227232732274B816A818981FF
:1029B0000E946E15ADCF0E948315AACF0E943C14D1
:1029C000A7CF0E941B14A4CF0E94770CA1CF0E9416
:1029D000161689839DCF0E94181698278927982755
:1029E0009A83898395CF6B8170E089819A81AE014A
:1029F0004C5F5F4F9827892798270E941B1688CF26
:102A00006B8170E089819A81AE014C5F5F4F98279E
:102A1000892798270E9442167BCF0E946D1678CF97
:102A20000E944215D6CF6B8170E089819A81AE01F8
:102A30004C5F5F4F9827892798270E94BB1568CF66
:102A40006B8170E089819A81AE014C5F5F4F98275E
:102A5000892798270E94E0155BCF0E94B91358CFB1
:102A6000CE010E94322AFFEF21EE84E0F150204097
:102A70008040E1F700C000000E947B2949CF8FEF22
:102A8000888346CF84E0089598E0699FB0011124BF
:102A900050E0440F551F640F751F98E2899F600D29
:102AA000711D1124CB01869608950F931F93CF9328
:102AB000DF930E9444158C010E94BE34C82FD0E0E1
:102AC000DC2FCC27C80101960E94BE349E01282B22
:102AD000C901DF91CF911F910F9108950F931F931B
:102AE000CF93DF93122F032F0E944415EC01602F28
:102AF0000E94D234612FCE010196DF91CF911F91B8
:102B00000F910C94D234AF92BF92CF92DF92EF929A
:102B1000FF921F93CF93DF9385E0C82E81E0D82EDC
:102B2000D0E07601C0E014C0F50125913491412F29
:102B30006C2F8D2F0E946E1582E0A80EB11C1F5FB6
:102B4000143091F788E0E80EF11CCF5FC53019F022
:102B5000570110E0E9CFDF5F88E2C80ED11CD43006
:102B600001F7DF91CF911F91FF90EF90DF90CF9011
:102B7000BF90AF900895EF92FF920F931F93CF9362
:102B8000DF93EC018A017C01E60EF71ECE018696EA
:102B9000CE15DF0539F4DF91CF911F910F91FF9092
:102BA000EF900895C03AD10540F40E94BE34F80178
:102BB00080830F5F1F4F2196E9CFF8011082F9CF74
:102BC000CF92DF92EF92FF920F931F93CF93DF93F9
:102BD0007C016A018C01060F171FEC01CE0186965D
:102BE000C017D10749F4DF91CF911F910F91FF904A
:102BF000EF90DF90CF900895C03AD10540F4FE01E8
:102C0000EE19FF09EC0DFD1D60810E94D234219662
:102C1000E5CF462F843038F4753028F4643018F44A
:102C2000672F0C94551590E080E0089580E1089599
:102C30008AE393E00895EF92FF920F931F93CF934F
:102C4000DF93EC018A017C01E60EF71ECE018A5368
:102C50009F4FCE15DF0539F4DF91CF911F910F9172
:102C6000FF90EF900895CA3323E0D20740F40E940A
:102C7000BE34F80180830F5F1F4F2196E7CFF80124
:102C80001082F9CFCF92DF92EF92FF920F931F93B2
:102C9000CF93DF937C016A018C01060F171FEC01B3
:102CA000CE018A539F4FC017D10749F4DF91CF91CE
:102CB0001F910F91FF90EF90DF90CF900895CA334E
:102CC00023E0D20740F4FE01EE19FF09EC0DFD1DD3
:102CD00060810E94D2342196E3CFCF93DF93C6EC7C
:102CE000D0E060E0CE010E94D2342196C11584E08C
:102CF000D807B9F7DF91CF910895DF92EF92FF9255
:102D00000F931F93CF93DF9300D000D0CDB7DEB7E2
:102D1000F82E8FE08F1540F08FEF93E00E94BE34C5
:102D200006EC10E08823C1F00F900F900F900F90E9
:102D3000DF91CF911F910F91FF90EF90DF90089559
:102D4000011584E0180781F3C8010E94BE34811187
:102D500001C0FA940F5F1F4FF110F2CF19821A824F
:102D60001B821C82DD24D39478018FEFE81AF80AC5
:102D7000C8010E94BE3489831A828823A9F29FEF7A
:102D8000980F933078F48A83D9820E5F1F4FC70162
:102D90000E94BE348B83882339F2CE0101960E94B3
:102DA0006507E2CF8701F9CFCF92DF92EF92FF92D2
:102DB0000F931F93CF93DF936C017B0164E670E068
:102DC00088E70E94081CEC0197FD12C010E000E0AB
:102DD000F601E00FF11F849164E670E00E94641C2C
:102DE000EC01892B29F40F5F1F4F0E151F0581F78A
:102DF0000E94E71CCE01DF91CF911F910F91FF90B0
:102E0000EF90DF90CF900895E4E2F3E080E092E06D
:102E1000DF019C011D9221503040E1F7F09329051C
:102E2000E09328058FEF9FEF9093800280937F02BD
:102E300008950E94BE0580937B0280FD0FC080E84C
:102E400080937A020E94021C6DE070E08EE494E0B0
:102E50000E94D416892B21F080E0089580E2F0CF03
:102E600080917B0263E070E081FD26C08BE494E0FA
:102E70000E94D416892B81F76DE070E08BE394E01B
:102E80000E94D416892B41F70E943C29605A754153
:102E90008F4F9F4F609324057093250580932605DF
:102EA000909327050E94041781E080937E0280930F
:102EB0007D0210927C02089588E494E0D9CF20919D
:102EC0007A0236E0839FC0011124629F800D911D1C
:102ED0001124811522E0920714F090E080E08C5DCF
:102EE0009C4F9093290580932805089520912805EB
:102EF000309129052E51334040917A02642F70E0C1
:102F0000C9010E941831481B463010F4240F311DAE
:102F1000211582E0380710F030E020E02C5D3C4FB6
:102F2000309329052093280508951F93CF93DF93AD
:102F3000162F8A3031F481E0DF91CF911F910C94EC
:102F40000F188D3011F480E0F7CFC0912805D09193
:102F5000290596E0FE01A4E5B2E001900D929A9554
:102F6000E1F7803EC8F086E0FE0111928A95E9F70C
:102F700011111EC0C0912805D091290546E050E0EE
:102F8000BE0184E592E00E941232892BF9F4DF91B0
:102F9000CF911F910C947617F6E08F9FB00111240A
:102FA000655A7B4F46E050E0CE010E94FC31E0CFF5
:102FB000E0912805F09129059F012A5F3F4F2E17C8
:102FC0003F07C1F2808180958193F9CFC452D340ED
:102FD000CE0125E0969587952A95E1F721E030E02E
:102FE000A90102C0440F551F8A95E2F7CA0140911A
:102FF0007F0250918002842B952B259645E0D69533
:10300000C7954A95E1F702C0220F331FCA95E2F730
:10301000822B932B9093800280937F02B8CFCF9323
:10302000382FE0912805F0912905E452F3402091D2
:103030007A02622F70E0CF010E941831281B822F84
:10304000332369F066E00E94FE30C82FC15010F4AF
:10305000CF91089560E080E20E949517F7CF9F011D
:10306000280F311D2115324018F080E0F0E0E0E03B
:103070008E0F9F2F911D8C5D9C4F909329058093FF
:103080002805E6CFFF920F931F93CF93DF93EC01B8
:10309000F62EFC0101900020E9F78F010150110983
:1030A000C017D10730F0DF91CF911F910F91FF90A2
:1030B00008956F2D89910E949517F2CF1F93CF939A
:1030C000DF93EC01162FFE018491811104C0DF9182
:1030D000CF911F910895612F0E9495172196F3CFEC
:1030E0000E945E1881E00C940F1880917E0281117D
:1030F00003C080917D0208950E943C29605A754169
:103100008F4F9F4F6093240570932505809326056C
:103110009093270580917D028111EBCF62E070E0F2
:1031200089E394E00E94D416892B19F781E08093FB
:103130007D02DFCF2F923F925F926F927F928F92AC
:103140009F92AF92BF92CF92DF92EF92FF920F9336
:103150001F93CF93DF9380917E02882369F02091A3
:103160007F02309180022115310531F080917C027F
:1031700061E070E0882399F0DF91CF911F910F916A
:10318000FF90EF90DF90CF90BF90AF909F908F9087
:103190007F906F905F903F902F9008958F5F082FE2
:1031A00010E01B01082E02C0220C331C0A94E2F727
:1031B000A90142215321452B89F390917B0290FD77
:1031C00044C08295880F80768093190198013695C6
:1031D00027953695279520931C01815E80931A01CF
:1031E00010921D0124E630E047E050E067E171E015
:1031F00088E70E94931C892B09F0BECFA80125E027
:10320000440F551F2A95E1F780917B0280FD2BC06A
:103210004C5D5C4F04E610E020E230E060E488E7BB
:103220000E94BA1C892B09F0A7CF0E947518E101F2
:10323000C095D09580917F0290918002C823D923B8
:10324000D0938002C0937F0297CF880F880F880F9A
:103250008093190110921C01895F80931A0183E009
:1032600080931D01BFCFEAE5F2E080E2DF011D920D
:103270008A95E9F7A5EBB1E001EB11E089EBC82EE7
:1032800081E0D82E97E0592E772473948D91E80130
:1032900029918E01240F352F311D2C5D3C4FE82FD5
:1032A000F0E0E65AFD4F90E080E0652C681A872C2C
:1032B000082E01C0880C0A94EAF77901A12CE701D5
:1032C000B9907E01B820662D6A196770962E062E79
:1032D000000C770BDB2D01C0DD0F9A94EAF7719596
:1032E000619571096770772701C0B6946A95EAF70E
:1032F000BD2A6081962E9B289082A39468E0A61236
:10330000DECF019631968830910579F6CA16DB0634
:1033100009F0BCCF04E610E020E230E04AE552E0DC
:103320007DCF80917D0290917E02911103C091E04A
:1033300089270895882369F062E070E087E394E0CC
:103340000E94D416892B19F080917D020895109265
:103350007D0280917D02EBCF0F931F9380917E02BF
:10336000882319F160E080E00E945F170E94C00589
:103370000E949A1880917D028823B9F00E943C290E
:1033800000912405109125052091260530912705EF
:10339000601B710B820B930B6F3F7F4F8F4F9F47CB
:1033A00020F41F910F910C9491191F910F91089582
:1033B000AF92BF92CF92DF92EF92FF920F931F9343
:1033C000CF93DF937C015B01C42FD22FFC0182815C
:1033D0008823F9F0409383020E943029909382025F
:1033E0008093810280E28C0F883008F061C0C77042
:1033F00081E001C0880FCA95EAF7DF91CF911F9154
:103400000F91FF90EF90DF90CF90BF90AF900C9412
:10341000BE1E10918302141340C0809181029091CE
:1034200082020E9448296C01B701C5010E94A123B4
:10343000C816D90690F5C0E2CD0F1D17B9F080E28D
:10344000810F883040F4177081E001C0880F1A9511
:10345000EAF70E94C51EC83048F481E09D2F97709E
:1034600001C0880F9A95EAF70E94BE1E802F0E9425
:10347000AB1EC830E8F4D77081E001C0880FDA9540
:10348000EAF7DF91CF911F910F91FF90EF90DF90BE
:10349000CF90BF90AF900C94C51E80E28C0F883007
:1034A00038F4C77081E001C0880FCA95EAF7E9CF08
:1034B000DF91CF911F910F91FF90EF90DF90CF9010
:1034C000BF90AF9008950F939C01CB01243F4CE532
:1034D000340759F1A8F4293DFCE53F0701F12A3DE5
:1034E0004CE53407D1F1283D3C4591F406E221EE4C
:1034F00041EE68ED7CE50E94D81980E00F910895B7
:10350000263FFCE53F07E9F0B0F0273F3C45F9F0E6
:10351000FC018281882339F110928302EFCF07E208
:1035200025EE45EE69ED7CE5E6CF06E221EE40EEC4
:1035300064EF7CE5E0CF07E225EE44EE65EF7CE545
:10354000DACF06E221EE42EE66EF7CE5D4CF07E269
:1035500025EE46EE67EF7CE5CECF08E221E045EEB2
:103560006AED7CE5C8CF81E0C9CFCF93DF93EC0152
:10357000FB018281882309F419C1C230FCE5DF0711
:10358000C0F1C6319CE5D90730F09E012B5F3C4568
:103590002930310570F50E94C12790932F05809343
:1035A0002E05C031ECE5DE0709F4CFC008F05BC0A2
:1035B000C8308CE5D80709F4B6C088F5C430ECE50E
:1035C000DE0709F4A8C0C0F4C2308CE5D80709F4BE
:1035D0009CC080912E058260C330DC4509F498C000
:1035E00080912E0590912F050E94CF270E942B21BC
:1035F00080E0DF91CF91089580912E058061C630E3
:10360000ECE5DE0709F484C080912E058860C730A0
:10361000DC4508F47DC080912E05806279C0CC30F5
:103620008CE5D80709F489C070F480912E058C6070
:10363000CA30ECE5DE0709F46BC008F478C080916D
:103640002E058E7F65C0CE308CE5D80709F479C091
:1036500080912E058B7FCF30DC4508F459C08091D6
:103660002E058F7E55C0CC3FECE5DE0709F457C030
:1036700030F5C3318CE5D80709F46FC078F4C13157
:10368000ECE5DE0709F465C0C231DC4509F0A8CFDE
:103690000E942B2180912E058F773AC0C5318CE591
:1036A000D80709F462C008F476C080912F058160C4
:1036B000CB3FDC4509F094CF80932F0591CFC11506
:1036C000FDE5DF0709F44DC088F480912F058D7F5B
:1036D000CE3F9CE5D90781F380912F058E7FCF3FA8
:1036E000DC4550F380912F058360E6CFC230FDE5C5
:1036F000DF0709F459C008F444C080E0C330DD4559
:1037000009F06ECF0E9454286BCF80912E05816006
:1037100080932E0565CF80912E058460F9CF80912E
:103720002F058260C9CF80912E058064F1CF0E9461
:103730002B2180912E058068EBCF80912E058D7F07
:10374000E7CF80912E05877FE3CF80912E058F7D77
:10375000DFCF80912E058F7BDBCF80912E05837F7D
:10376000D7CF80912F058C7FA7CF80912E0582FB2C
:10377000992790F921E0922790FB82F990FB83F939
:10378000C7CF80912F05982F909591708E7F892BB0
:1037900090FB81F991CF0E942B2190912E05892FCA
:1037A00097FB87F98058B4CF81E0ACCF81E021CF7F
:1037B000CF93DF93EB0186319C4511F50E94AC2637
:1037C0009A81992399F08A7A91E009F490E0909394
:1037D0008402811109C089E20E9487260E94F8268E
:1037E00080E0DF91CF91089585E3F6CF8091840248
:1037F000811104C089E20E948E26F0CF85E3FBCFC1
:1038000081E0EFCF1092B9008CE08093B80008956A
:10381000EF92FF920F931F93CF93DF93182FEB013B
:103820001092BC0084EA8093BC000E9430297C0185
:103830008091BC0087FF27C08091B900887F8830C5
:1038400029F08091B900887F8031D9F51093BB00B1
:1038500084E88093BC000E9430298C018091BC00D8
:1038600087FF24C02091B900287F90E080E02831B4
:10387000B1F081E090E0203411F490E080E0919587
:10388000819591090CC0CF3FDC0791F20E9430294D
:103890008E199F098C179D0758F28EEF9FEFDF91CD
:1038A000CF911F910F91FF90EF900895CF3FDC07CC
:1038B000A9F20E943029801B910B8C179D0770F292
:1038C000ECCF8FEF9FEFEBCF0F931F93CF93DF934F
:1038D000EB018093BB0084E88093BC000E943029F8
:1038E0008C018091BC0087FF11C02091B900287F16
:1038F00081E090E0283211F490E080E0919581958C
:103900009109DF91CF911F910F910895CF3FDC076F
:1039100041F30E943029801B910B8C179D0708F3FF
:103920008EEF9FEFEECFCF92DF92EF92FF920F9349
:103930001F93CF93DF936B018A017901B9010E9434
:10394000081CE6010C0D1D1DC017D10761F424E908
:103950002093BC00DF91CF911F910F91FF90EF90CA
:10396000DF90CF90089597FDF2CFB70189910E9423
:10397000641CEACFCF92DF92EF92FF920F931F93D6
:10398000CF93DF93C62F6A017901B8010E94081C0A
:1039900097FD0CC0B8018C2F0E94641CE601EC0C52
:1039A000FD1CCE15DF0511F097FF0CC024E9209314
:1039B000BC00DF91CF911F910F91FF90EF90DF90AE
:1039C000CF900895B80189910E94641CEACF84E9E0
:1039D0008093BC00089590938A0280938902089591
:1039E000E0918902F0918A02309721F00190F081F4
:1039F000E02D099480E00895E0918902F0918A0217
:103A0000309711F480E008950190F081E02D099540
:103A10000895E0918902F0918A02309721F00280A6
:103A2000F381E02D09940895209187023091880256
:103A30002817390771F09093880280938702E091EC
:103A40008902F0918A02309721F00680F781E02DFB
:103A5000099408952091850230918602281739072C
:103A600071F09093860280938502E0918902F09133
:103A70008A02309721F00084F185E02D09940895A1
:103A800085B7806885BF85B7806885BF089508952C
:103A900008950C94471D08950C944B1D0E94401DE1
:103AA0000E94481D0C94491D81E008950C94541DFA
:103AB000089508950E9427290E94C80A0E94CC13E5
:103AC00080E00E9419170E94A5290E94EC110C9415
:103AD0004C1DAF92BF92CF92DF92EF92FF920F9365
:103AE0001F93CF93DF93CDB7DEB72A970FB6F89425
:103AF000DEBF0FBECDBF0E94581D0E94591D0E94FF
:103B0000FD0AB82E0E94561D882309F465C08CE872
:103B1000C82E82E0D82E10E000E0A02E802F0E9458
:103B2000A60AE82EF601F1906F01F81609F44EC0CE
:103B30008091EE0281FD0E94AC0A9F2D9E2580E0BF
:103B4000FF24F394292F2F21E1F18E83AF82EF2000
:103B500081E009F480E088870E9430298160782F15
:103B60009A8789874E815F8168858A850E940E1EAB
:103B7000F801E457FD4F8081F826F0820E94271259
:103B80000E94AC19B1100E9475180E94F01C90910F
:103B90008B02891791F10E94F01C80938B022A9668
:103BA0000FB6F894DEBF0FBECDBFDF91CF911F914E
:103BB0000F91FF90EF90DF90CF90BF90AF900C945B
:103BC000A6088F5FFF0C843009F0BCCF0F5F1F4F3A
:103BD0000530110509F0A1CF8FEF89838A831B82FD
:103BE0000E9430298160782F9D838C8349815A817E
:103BF0006B818D810E940E1EC1CF2A960FB6F8945C
:103C0000DEBF0FBECDBFDF91CF911F910F91FF900F
:103C1000EF90DF90CF90BF90AF900895CF93DF9358
:103C2000CDB7DEB72B970FB6F894DEBF0FBECDBF72
:103C30004F83588769877A878B871E821D8285E02C
:103C4000FE013796DE01119601900D928A95E1F7FB
:103C500049815A816B817C818D819E812B960FB623
:103C6000F894DEBF0FBECDBFDF91CF910C94A4239B
:103C7000FC01808191810C945926CF93C82F882311
:103C800009F43FC08CEF8C0F813AA0F46C2F809127
:103C90001E0190911F010E946B28882329F08C2F10
:103CA0000E948E260E94F8268C2F0E948726CF9194
:103CB0000C94F82680E28C0F883048F4C77081E0BD
:103CC00001C0880FCA95EAF70E94AF26F0CFEBE556
:103CD000EC0FE33040F4F0E0E951FE4F808190E0DA
:103CE000CF910C94141DC85AC73158F4EC2FF0E052
:103CF000EE0FFF1FE754FE4F80819181CF910C940E
:103D00002A1DCF910895882329F19CEF980F913AAD
:103D100020F40E948E260C94F82690E2980F98309A
:103D200050F4877091E001C0990F8A95EAF7892FC6
:103D30000E94B526F0CF9BE5980F933020F490E0D9
:103D400080E00C94141D885A873120F490E080E0C4
:103D50000C942A1D0895CF93C82F0E943D1EC9338D
:103D600049F42FEF87EE93E0215080409040E1F737
:103D700000C000008C2FCF910C94831E882321F06B
:103D80000E94AF260C94F8260895882321F00E9403
:103D9000B5260C94F8260895BF92CF92DF92EF9249
:103DA000FF920F931F93CF93DF936C01D62FC72FF2
:103DB000FC01058102950F70128111110E94CC2621
:103DC0000E94A526E82E882391F01123D1F08C2F94
:103DD000807F803421F080E28D0F883090F082E087
:103DE0000E9443270E94A52691E0E82EE926BC2EDA
:103DF000B2949FE0B922EB2DF0E0EB57FA4C0C9413
:103E00006231E12CF4CF0C2F0F70C07F11F00295BE
:103E1000007F1123A9F0002359F080E28D0F883034
:103E200010F0D11109C0802F0E94AF260E94F82601
:103E30008D2F0E943D1E14C0802F0E94BF26F6CFFA
:103E40008D2F0E94831E002359F080E28D0F883051
:103E500010F0D1112CC0802F0E94B5260E94F826A8
:103E60002B2D2850330B2430310520F40E94F01CF8
:103E70000E94A608EE2009F493C10E94A12680FDAD
:103E80008FC1F60112820E949B260E942825C6013E
:103E90000E94F1200E949B26DF91CF911F910F91EC
:103EA000FF90EF90DF90CF90BF900C944925802F2A
:103EB0000E94C526D3CFFC2FFF70FF2EC07FC032DB
:103EC00019F0F29480EFF822DD2369F0D13049F146
:103ED000112391F1002351F1F601858180FFA8CFD4
:103EE0008F70858323C0112381F0011106C00E94C9
:103EF000DF268F290E94BE1EB3CF0130C1F70E947A
:103F0000DF268F290E94E526ABCF011106C00E9453
:103F1000EE268F2D0E94C51EA3CF013009F4A0CF3D
:103F2000F6CF112329F0063008F09ACF8F2DE2CF7B
:103F3000053008F095CFEDCF002359F3D93349F47C
:103F4000FFEF27EE33E0F15020403040E1F700C0B2
:103F500000008D2F0E94831E83CF8C2F869586951F
:103F6000837069F0813009F07BCF8D2F9C2F937087
:103F7000111102C090E080E00E942A1D71CF8D2FA8
:103F80009C2F9370111102C090E080E00E94141DDC
:103F900067CF8C2F837009F041C0111161CF4D2F75
:103FA000429546954770440F440F0D2F0F7010E057
:103FB00030E020E0042E04C0000F111F221F331F29
:103FC0000A94D2F760E070E0CB01D4FF0FC06FE03D
:103FD00070E080E090E004C0660F771F881F991F93
:103FE0004A95D2F76095709580959095C695C6953F
:103FF000C370602B712B822B932BC23049F058F485
:10400000C13019F00E94DA242BCF0E94C82428CF97
:104010000E94EC2425CF0E94C62422CF869511232E
:1040200011F08C2F8170882309F41ACF4D2F4295FF
:1040300046954770440F440F0D2F0F7010E030E08D
:1040400020E0042E04C0000F111F221F331F0A940A
:10405000D2F760E070E0CB01D4FF0FC06FE070E0FA
:1040600080E090E004C0660F771F881F991F4A9573
:10407000D2F76095709580959095C695C695C3705A
:10408000602B712B822B932BC23049F058F4C13036
:1040900019F00E949F25E4CE0E948D25E1CE0E945A
:1040A000B125DECE0E940225DBCECF70112329F090
:1040B0008C2F0E9428258D2F1DCF8D2F0E94C51E6D
:1040C0008C2F0E944925CCCED23F89F160F4D03F9D
:1040D000C9F0D13F29F1112309F442C00111A8CE42
:1040E0008C2F8F7121C0D33F39F1D43FA1F7112319
:1040F00069F1CF718C2F0E94282563E08C2F0E94DC
:104100002E27AECE112341F0053008F0A9CE8C2F1A
:104110008F710E946C25A4CE063008F0A1CEF7CF97
:104120008C2F8F71112369F20E94282599CE8C2F34
:104130008F711123C9F3C5CF112329F08C2F8F71F3
:104140000E9413258DCE0E940E258ACE81E00E940A
:104150004327023008F484CE82E00E94432780CEB9
:10416000002359F0D93309F0F4CE8FEF97EEE3E056
:1041700081509040E040E1F7EACE8C2F8F71A1CFC3
:104180004C2F4F706D2FC6010E94AE080E943E2436
:1041900067CE4C2F4F706D2FC6010E94B10860CEC4
:1041A000DF91CF911F910F91FF90EF90DF90CF9013
:1041B000BF9008950F931F93CF93DF93EC01688115
:1041C00079818A810E9463268C010E94C3250E9406
:1041D000C524B801CE01DF91CF911F910F910C94AE
:1041E000CC1ECF93DF93EC018B819C81892B29F02E
:1041F0008881998189238F3F59F4DF91CF91089568
:10420000CE010E94DA20CE01DF91CF910C94A60658
:10421000CE010E9457088111F3CF0E94A526882362
:1042200061F38A81882349F382E0DF91CF910C9476
:1042300043270E94CC260E94DC260E94F82690E0AC
:1042400080E00E94141D90E080E00C942A1D0E94E2
:1042500095260C9419210E94BC260C942721E92F45
:10426000E295EF70E250EE3070F4F0E0EB56FA4C6D
:104270000C946231803F19F020F4883E20F481E0F4
:104280000895843FE1F380E00895883EC0F3813FC4
:10429000D1F7F5CF93FB882780F908950E9459261E
:1042A0000C942F21CF93DF9300D000D00F92CDB785
:1042B000DEB70F900F900F900F900F90DF91CF917E
:1042C0000895CF93DF9300D000D000D0CDB7DEB7F4
:1042D00026960FB6F894DEBF0FBECDBFDF91CF910B
:1042E00008951F93CF93DF93C091920216E08091BF
:1042F00093028C1304C0DF91CF911F910895D0E0F9
:104300001C9FF0011D9FF00D1124EC56FD4F4081C4
:10431000518162817381848195810E9461212196FE
:10432000C770E5CF4091C4025091C5026091C602AA
:104330007091C7028091C8029091C9020C946121CA
:104340001F93CF93DF938091C902807FA9F480915E
:10435000C602882389F080919202C09193026091F5
:10436000C4027091C502A091C702B091C802D62FB5
:10437000D72316E0C81304C0DF91CF911F91089591
:1043800090E0109711F0DF3F19F401968770F2CF9B
:10439000189F9001199F300D1124F901EC56FD4F23
:1043A00041814713F2CF40814613EFCF4281411143
:1043B000ECCF438154814A1B5B0B483C510528F7E5
:1043C0008091C9028F7080618093C902F901E7561C
:1043D000FD4F80818F708061808384EC92E00E9429
:1043E000F120DF91CF911F910C947121AF92BF9278
:1043F000CF92DF92EF92FF920F931F93CF93DF93B1
:10440000CDB7DEB761970FB6F894DEBF0FBECDBF54
:104410008C0185E0F801DE011D9601900D928A95D0
:10442000E1F7F80140815181E28084ECC82E82E0FE
:10443000D82E6091C7027091C8026115710509F408
:1044400061C19091C4022091C502892F82238F3FC0
:1044500009F458C1A380B480F090C602F501E61BB0
:10446000F70BFF2009F4FCC08091C902382F307F80
:10447000E83CF10508F0B2C0311179C0FE2C2513DB
:1044800023C0941321C0E1101FC08F7080618093FE
:10449000C9020E949221C6010E94F1208091C902A6
:1044A000F80185838F2D61960FB6F894DEBF0FBE9D
:1044B000CDBFDF91CF911F910F91FF90EF90DF90D3
:1044C000CF90BF90AF900895AB2829F0842F85231B
:1044D0008F3F09F033C180E0F82FF170DF2E80FFAD
:1044E0003CC0809192022091930236E0821315C065
:1044F0004D875E878D859E850E945926292F22959E
:104500002F702230F0F0243018F59F70F1F0F80190
:104510009581907FD1F4D12C1EC090E0389FF0019E
:10452000399FF00D1124EC56FD4F6181651306C0D3
:104530006081641303C062816E110FC001968770A1
:10454000D5CF9F7011F0882331F3805E883018F347
:10455000C8010E94F120FD2CA5CFEE2009F4A2CFC6
:104560008091C90281608093C902F12C9BCF2513F1
:1045700006C0941304C0F801EE2009F48DC04D87E5
:104580005E878D859E850E944E21882319F1EE203D
:1045900009F18091C902803270F02091C4023091FB
:1045A000C50238872F831986BB86AA868C87CE01E1
:1045B00007960E94F12086E0F801A4ECB2E0019099
:1045C0000D928A95E1F70E94A0210E949221FF247A
:1045D000F39468CFC8010E94F120F9CF311113C0C4
:1045E0007A2DB98AA88A6E2D89890E94522184EC7D
:1045F00092E00E94F12086E0F60111928A95E9F797
:104600000E949221B2CF25130FC094130DC0E11068
:104610000BC0F8018583C8010E94F12086E0F601F5
:1046200011928A95E9F73ECF4D875E878D859E85ED
:104630000E944E21882371F2EE2061F28091C9021E
:10464000803208F4B8CF2091C4023091C5023A8379
:1046500029831B82BD82AC828E83CE010196A9CFB5
:10466000E83CF10508F041C0FE2CEE2009F4B2CF81
:1046700025132AC0941328C08091C90280FD1BC055
:10468000982F907FC1F0F8018583903F31F0982FEB
:10469000907F905F8F70892B8583C8010E94F120E5
:1046A00086E0F801A4ECB2E001900D928A95E1F762
:1046B0000E949221F7CE86E0F801A4ECB2E00190CE
:1046C0000D928A95E1F7EECE4D875E878D859E85AA
:1046D0000E944E2181116FCF8091C9028160809329
:1046E000C902C8010E94F120DDCE7A2DB98AA88ABC
:1046F0006E2D89890E94522186E0F60111928A95D9
:10470000E9F7D6CFEE2009F465CF4D875E878D851A
:104710009E850E944E21F82E882309F45BCF86E007
:10472000F801A4ECB2E001900D928A95E1F784ECD7
:1047300092E00E94381E0E94A021BACF81E08E250F
:10474000CBCE88EC90E008951F93CF93DF93CDB745
:10475000DEB72C970FB6F894DEBF0FBECDBF4F83E8
:10476000588769877A878B879C87CE0107960E9436
:10477000F621882369F08A859B85892B39F04F8142
:104780005885842F85238F3F09F071C016E05FC0E4
:1047900086E0FE013796DE01119601900D928A9512
:1047A000E1F78A859B85892B89F38F8198858923F9
:1047B0008F3F61F32091930230E0C9010196877029
:1047C0009927409192024817190671F40E942B21F3
:1047D000109293021092920286E0E4ECF2E0DF0184
:1047E0001D928A95E9F7D2CF96E0929FD001939FD0
:1047F000B00D1124AC56BD4FFE01319601900D92C3
:104800009A95E1F7809393020E947121BFCF819F17
:10481000C00111248C569D4F0E94F6218823E9F097
:10482000E09192021E9FF0011124EC56FD4F408151
:10483000518162817381848195810E94612180917F
:10484000920290E00196877099278093920280915E
:104850009202909193028913DACF2C960FB6F894B6
:10486000DEBF0FBECDBFDF91CF911F910895698547
:104870007A858B859C850E94612188CFEF92FF927B
:104880000F931F93CF93DF938C01892B81F0F12C31
:10489000EE24E394E8012196F8018491843770F4C2
:1048A000843008F05FC08130B1F08230A1F1DF9137
:1048B000CF911F910F91FF90EF900895853709F4E4
:1048C0004CC008F43DC09CE7980F903780F78F7775
:1048D0000E94831E49C00E5F1F4FFE01849190E22B
:1048E000980F983060F48770FE2D01C0FF0F8A95F5
:1048F000EAF78F2F0E94CF260E94F82602C00E945E
:104900003D1E8F2D815030F2EFE9FFE03197F1F736
:1049100000C00000F7CF0E5F1F4FFE01849190E2B0
:10492000980F983050F48770FE2D01C0FF0F8A95C4
:10493000EAF78F2F0E94D526DFCF0E94831EE1CF9A
:104940000E5F1F4FFE01C491C150D8F28FE99FE066
:104950000197F1F700C00000F7CF0E5F1F4FFE0177
:10496000F490CFCF0E943D1E8E01CBCF08950C94C2
:10497000B6240E94B7246093DD027093DE02809318
:10498000DF029093E0020C94192108950C94B9244D
:104990000F931F930091DD021091DE022091DF0240
:1049A0003091E002602B712B822B932B1F910F9182
:1049B0000C94B9240F931F930091DD021091DE0235
:1049C0002091DF023091E002602371238223932340
:1049D0001F910F910C94B9240F931F930091DD0246
:1049E0001091DE022091DF023091E00260277127F2
:1049F000822793271F910F910C94B9240C94B6240D
:104A00000C94FE240E9400256093D9027093DA0270
:104A10008093DB029093DC020C94192160E070E03B
:104A2000CB010C9402250F931F9341E050E060E00E
:104A300070E08A019B0104C0000F111F221F331F69
:104A40008A95D2F7C901B8011F910F910C940225E4
:104A50000F931F9341E050E060E070E004C0440F0A
:104A6000551F661F771F8A95D2F78091D9029091C2
:104A7000DA02A091DB02B091DC028A019B01082BD3
:104A8000192B2A2B3B2BC901B8011F910F910C94B4
:104A900002250F931F9341E050E060E070E004C0F6
:104AA000440F551F661F771F8A95D2F7CB01BA01B5
:104AB00060957095809590950091D9021091DA02D9
:104AC0002091DB023091DC02602371238223932347
:104AD0001F910F910C9402250F931F9341E050E01A
:104AE00060E070E004C0440F551F661F771F8A9571
:104AF000D2F78091D9029091DA02A091DB02B091B5
:104B0000DC028A019B01082719272A273B27C901B4
:104B1000B8011F910F910C9402250F931F930091E0
:104B2000D9021091DA022091DB023091DC02602B75
:104B3000712B822B932B1F910F910C9402250F93B5
:104B40001F930091D9021091DA022091DB0230917B
:104B5000DC0260237123822393231F910F910C9415
:104B600002250F931F930091D9021091DA02209130
:104B7000DB023091DC0260277127822793271F9187
:104B80000F910C9402250895990F990F890F982F72
:104B9000977041E001C0440F9A95EAF78695869593
:104BA000869595E0899FF0011124E653FD4F30E092
:104BB00020E070E05191DF011197CB01022E02C07D
:104BC000969587950A94E2F78170819585278423CD
:104BD00085278C932F5F3F4F2530310559F7089576
:104BE000990F990F890F982F9770869586958695BE
:104BF00025E0829FF0011124E653FD4F50E040E094
:104C000080E0219130E0092E02C0369527950A9464
:104C1000E2F721703327042E01C0220F0A94EAF72D
:104C2000822B4F5F5F4F4530510559F70895BF9272
:104C3000CF92DF92EF92FF920F931F93CF93DF9368
:104C40008C01C090D902D090DA02E090DB02F090A3
:104C5000DC028091DD029091DE02A091DF02B09132
:104C6000E002C82AD92AEA2AFB2ACFE1D0E0BC2EEA
:104C7000D701C6010C2E04C0B695A79597958795C8
:104C80000A94D2F780FD0EC0219788F7B12C8B2DA6
:104C9000DF91CF911F910F91FF90EF90DF90CF9018
:104CA000BF900895B8018C2F0E94BA08019761F354
:104CB000EECFCF93DF93EC010E941726BE01DF9168
:104CC000CF910C94BA081F93CF93DF93EB0190918F
:104CD0009102992331F0CB01DF91CF911F910C9478
:104CE0005926882379F0CB010E941726182F682FA8
:104CF000CE010E94C425BE01812FDF91CF911F916B
:104D00000C94BA08CB010E94F025182FF4CF682F1D
:104D100080911E0190911F010C94A128682F809111
:104D20001E0190911F010C94A32880911E01909167
:104D30001F010C94A5288091E102859585958595A4
:104D400008958091E102877008959091E102977033
:104D500081E009F480E008958091ED02089590913A
:104D6000ED02892B8093ED02089580959091ED02DC
:104D700098239093ED0208951092ED02089590917A
:104D8000EC02892B8093EC02089580959091EC02BF
:104D900098239093EC0208951092EC02089590915C
:104DA000EB02892B8093EB02089580959091EB02A2
:104DB00098239093EB0208951092EB02089580914E
:104DC000E202089508950C94E2269091E202981769
:104DD00021F08093E2020C94E32608958091E20290
:104DE000882329F01092E20280E00C94E3260895D3
:104DF000E0911E01F0911F018091ED028083E0910E
:104E00001E01F0911F0180819091EC02892B80831B
:104E1000E0911E01F0911F0180819091EB02892B9E
:104E200080839091E202992381F0E0911E01F0913C
:104E30001F018081892B808380911E0190911F0129
:104E40000E94592881110E94EE2680911E019091A6
:104E50001F010C94091D08950C942B2798E0899F3D
:104E600090011124622B6093E1020E942825809119
:104E7000E1028595859585950C942C271092E10289
:104E800080E00C942C279091E102809589238093F7
:104E9000E102282F277071F4282F082E000C330B05
:104EA0009217130639F08595859585950E944925B9
:104EB0000C943E270895CF92DF92EF92FF926C01FF
:104EC000EE24FF2420E0C114D104E104F10419F020
:104ED000C701B60120E1C72ED82EE92EFF24C11448
:104EE000D104E104F10419F0285FC701B6016B0198
:104EF0007C0154E0F694E794D794C7945A95D1F77F
:104F0000C114D104E104F10419F02C5FC701B6010A
:104F10006B017C0142E0F694E794D794C7944A95DC
:104F2000D1F7C114D104E104F10419F02E5FC701D7
:104F3000B6019695879577956795672B682B692BB2
:104F400009F02F5F822FFF90EF90DF90CF900895B0
:104F50006FEF7FEF90E080E00C94F03490E080E021
:104F60000E94CC3421E08C3E9E4F09F020E0822F3D
:104F7000089582E090E00C94BE3483E090E00C94BD
:104F8000BE34CF9384E090E00E94BE34C82F81E20B
:104F900090E00E94BE34982F8C2FCF910895CF932C
:104FA000C92F682F84E090E00E94D2346C2F81E2F8
:104FB00090E0CF910C94D234AB01BC018FE090E033
:104FC0000C94E434AB01BC0183E190E00C94E43434
:104FD00060E070E0CB010C94E22760E070E0CB0170
:104FE0000E94DC270C94E8276CEE7EEF90E080E0D6
:104FF0000E94F03460E082E090E00E94D23460E0F1
:1050000083E090E00E94D2341092DD021092DE0222
:105010001092DF021092E00260E084E090E00E94D3
:10502000D23460E081E290E00E94D23460E085E01A
:1050300090E00E94D23460E086E090E00E94D2349A
:105040006FEF87E090E00E94D23440E050E0BA0178
:1050500088E090E00E94E43460E08DE090E00E94FF
:10506000D23440E050E0BA0188E190E00E94E4349C
:1050700060E087E190E00E94D23440E050E0BA0165
:105080008CE190E00E94E43460E080E290E00E94D5
:10509000D23440E050E0BA0188E190E00E94E4346C
:1050A0000C94ED270C94F427682F8EE090E00C947C
:1050B000D2349C012E5F3F4FAC01485F5F4F80E0D0
:1050C0002417350709F40895F90191919F01992357
:1050D000B9F38F5FF5CF662349F0FC01329608964D
:1050E0002191261729F0E817F907D1F780E00895F4
:1050F00081E008959C01FC0132969FEF80E0419190
:10510000461751F09F3F19F4411101C0982F8F5F4E
:105110008630A9F79F3F09F40895290F311D97FDA7
:105120003A95F90162830895FC013296089621911F
:10513000261303C0DF0111971C92E817F907B9F78E
:1051400008950C947A280C949428029626E0FC0189
:1051500011922A95E9F70895089508950C94AD28C1
:105160000E94AE2880913405843049F11092EF02FC
:1051700088E190E020E40FB6F894A8958093600051
:105180000FBE2093600080E00E94A6080E94AE2817
:1051900083B7817F846083BF83B7816083BF789446
:1051A000889583B78E7F83BF0FB6F894A8958091BA
:1051B0006000886180936000109260000FBE0895C7
:1051C0000895CF930E94AC280E94FD0A0E94E02817
:1051D000C0E08C2F0E94A60A811105C0CF5FC530A8
:1051E000C1F7CF91089581E0FCCF08950C94F52884
:1051F0000E942B210E94F01C0E94A6080C94F62805
:105200001F921FB61F9211248F939F93AF93BF934A
:105210008091EF02811113C080912A0590912B0596
:10522000A0912C05B0912D054196A11DB11D809333
:105230002A0590932B05A0932C05B0932D05BF91C3
:10524000AF919F918F911F901FBE1F90189582E084
:1052500084BD93E095BD9AEF97BD80936E0008954D
:105260002FB7F89480912A0590912B05A0912C05D9
:10527000B0912D052FBF08952FB7F89460912A059E
:1052800070912B0580912C0590912D052FBF0895CD
:105290009C014FB7F89480912A0590912B05A0911D
:1052A0002C05B0912D054FBF821B930B0895789468
:1052B0001F921FB61F9211248F939F93AF93BF939A
:1052C00080912A0590912B05A0912C05B0912D0578
:1052D0000196A11DB11D80932A0590932B05A093E3
:1052E0002C05B0932D05BF91AF919F918F911F9089
:1052F0001FBE1F90189587E797E79093010880934A
:10530000000888E19AE00FB6F894A89580936000B1
:105310000FBE90936000FFCF0C94B9130E94FD0A5A
:105320002FEF86E791E0215080409040E1F700C0E8
:1053300000000E94FD0A80E00E94A60A80FF04C0CF
:105340000E948C290C947B2908950E94AE2781111C
:1053500002C00E9452280E94B9278093EE020E9448
:10536000C12790932F0580932E050E94BD27682F9B
:1053700070E090E080E00E94C6246091D9027091B4
:10538000DA028091DB029091DC020C94002580917E
:10539000F80208950895CF93DF9300D00F92CDB710
:1053A000DEB790913405943011F589837B836A834D
:1053B0009093E9008FEF9091E800815095FD06C031
:1053C00095ED9A95F1F700008111F5CF8091E800F5
:1053D00085FF0DC050E040E063E070E0CE01019633
:1053E0000E941E2C8091E8008E778093E8000F9039
:1053F0000F900F90DF91CF910895BC0184E00C9441
:10540000CB29BC0183E00C94CB29CF93DF93EC0133
:1054100081E08093E9008FEF9091E800815095FD45
:1054200006C095ED9A95F1F700008111F5CF8091B6
:10543000E80085FF14C050E040E068E070E0CE0175
:105440000E941E2C8091E8008E778093E80088E00F
:10545000FE01A0EFB2E001900D928A95E1F7DF9195
:10546000CF910895CF93FC01603221F580913405EE
:10547000843001F5C091E900CF702091EC00922FAB
:10548000917020FD90E8C92B82E08093E900809123
:10549000E80080FF0CC050E040E060E270E0CF0127
:1054A0000E941E2C8091E8008E778093E800CF70D8
:1054B000C093E900CF91089580913305811109C00F
:1054C0000E94FD2D0E945A2E8091E20084608093FC
:1054D000E2000895109233050895089508950C94FC
:1054E000F82842E061EC81E00E94792D42E261EC13
:1054F00084E00E94792D42E261EC82E00E94792DE5
:1055000042E260EC83E00C94792D80913605833083
:1055100009F461C030F48130D1F1823009F49DC0CA
:1055200008958A3009F489C08B3009F46FC089303E
:1055300009F050C080913505813209F04BC080914F
:10554000390590913A05009719F0029709F042C089
:105550008091E800877F8093E8008091E80082FFD7
:1055600035C09091F3008091F200029729F4809168
:10557000F1008B7F813021F48091F1008093F8025B
:105580008091E8008B778093E8000C94AD2D80919A
:105590003505813AF9F48091E800877F8093E8002F
:1055A0008091390590913A05892B61F468E080EF8C
:1055B00092E070E00E94BC2C8091E8008B77809391
:1055C000E800089560E090E080E0F3CF809134053A
:1055D0008111C3CF089580913505813AD9F7809123
:1055E000390590913A05892BA9F78091E800877FCA
:1055F0008093E8008091E80080FFFCCF80912A0131
:105600008093F1008091E8008E77BDCF80913505C1
:10561000813201F78091390590913A05892BD1F6B5
:105620008091E800877F8093E8000E94AD2D8091F3
:10563000370580932A010C942B2180913505813206
:1056400049F68091E800877F8093E8000E94AD2DA5
:10565000809138058093F902089580913505813A4B
:1056600009F0B8CF8091E800877F8093E8008091AF
:10567000E80080FFFCCF8091F902C2CFCDB7DEB742
:10568000A0970FB6F894DEBF0FBECDBF84B7877F5B
:1056900084BF0FB6F894A8958091600088618093CC
:1056A0006000109260000FBE80E890E00FB6F894A2
:1056B00080936100909361000FBE0E944E1D0E9476
:1056C000FD2D0E945A2E8091E20084608093E200BA
:1056D00078940E94E3300E945A1D80E291E00E947B
:1056E000EB1C13E080913405853059F00E94691D50
:1056F00080913405843091F00E94581D0E94591DFC
:10570000F1CF0E94B02880913205882359F30E947E
:10571000E128882339F30E94082CE4CF1093E90094
:105720008091E80082FFE8CF8091E80090E085FF5B
:1057300009C050E040E060E270E0CE0101960E94B6
:105740006D2C91E08091E8008B778093E80099239D
:1057500099F260E2CE0101960E947114CDCF0C94B3
:10576000B12B292F33272330310521F168F4213063
:10577000310509F443C02230310509F444C090E0FA
:1057800080E030E020E026C02132310551F12232A4
:105790003105A9F76330710590F7FB01EE0FFF1F8C
:1057A000E351FE4F2081318166517E4FFB018081A4
:1057B00090E010C099278130910581F0009729F081
:1057C0000297E9F6EBE9F9E002C0EBECF9E084912D
:1057D00090E09F01FA01318320830895EBEAF9E01C
:1057E000F6CF6330710558F6660F771FFB01ED5059
:1057F000FE4F2081318189E090E0ECCF82E190E0A2
:105800002AE23AE0E7CF8BE590E02FEC39E0E2CFF7
:1058100080E189BD82E189BD09B400FEFDCF8091A0
:10582000D8008F7D8093D8008091E00082608093C3
:10583000E0008091E00081FDFCCF0895AF92BF921F
:10584000CF92DF92FF920F931F93CF93DF936C0160
:10585000EB018A010E94CC2DF82E811123C0011585
:10586000110539F0F80180819181C81BD90BC80E50
:10587000D91EB12CA12C2097A9F08091E80085FDBC
:1058800022C08091E8008E778093E8000115110511
:10589000A1F0F80180819181A80EB91EB182A08289
:1058A00085E0F82E8F2DDF91CF911F910F91FF9002
:1058B000DF90CF90BF90AF9008950E94CC2D8823A9
:1058C000D1F2F82EEFCFF60181916F018093F100B4
:1058D0002197FFEFAF1ABF0ACECFAF92BF92CF9200
:1058E000DF92FF920F931F93CF93DF936C01EB0135
:1058F0008A010E94CC2DF82E811123C001151105BB
:1059000039F0F80180819181C81BD90BC80ED91ECE
:10591000B12CA12C2097A9F08091E80085FD22C030
:105920008091E8008B778093E80001151105A1F0C4
:10593000F80180819181A80EB91EB182A08285E014
:10594000F82E8F2DDF91CF911F910F91FF90DF9057
:10595000CF90BF90AF9008950E94CC2D8823D1F2B4
:10596000F82EEFCF8091F100F60181936F0121971E
:10597000FFEFAF1ABF0ACECFFC0180913B0590919B
:105980003C0586179707A0F06115710529F49091E1
:10599000E8009E779093E80090E06115710551F45E
:1059A000911108C08091E80082FF34C080E0089522
:1059B000BC01F2CF809134058823C1F18530C1F15B
:1059C0008091E80083FD30C08091E80082FDEACF3D
:1059D0008091E80080FFE1CF8091F3002091F200F8
:1059E000382F6115710519F02830310558F091E014
:1059F0002830310509F090E02091E8002E772093BF
:105A0000E800CBCF81918093F100615071092F5F45
:105A10003F4FE7CF80913405882341F0853041F036
:105A20008091E80083FFBECF81E0089582E0089571
:105A300083E00895FC0180913B0590913C05861719
:105A40009707A0F06115710529F48091E8008E7721
:105A50008093E80090E06115710551F4911108C040
:105A60008091E80082FF35C080E00895BC01F2CF4C
:105A7000809134058823C9F18530C9F18091E8000F
:105A800083FD31C08091E80082FDEACF8091E8007B
:105A900080FFE1CF8091F3002091F200382F611553
:105AA000710519F02830310558F091E028303105A2
:105AB00009F090E08091E8008E778093E800CBCFEA
:105AC00084918093F1003196615071092F5F3F4FAF
:105AD000E6CF80913405882341F0853041F08091F4
