:100000000C944B050C9492050C9492050C9492055B
:100010000C9492050C9492050C9492050C94920504
:100020000C9492050C9492050C942A280C94FC28AC
:100030000C945E230C9492050C9492050C949205FA
:100040000C9492050C9492050C9492050C949205D4
:100050000C9492050C94C6230C9492050C94920572
:100060000C9492050C9492050C9492050C949205B4
:100070000C9492050C9492050C9492050C949205A4
:100080000C9492050C9492050C9492050C94920594
:100090000C9492050C9492050C9492050C94920584
:1000A0000C9492050C9492050C9492050B070D0785
:1000B00018070F0711071307150717071A071C075B
:1000C0001E072907200722072407260728072B07D2
:1000D0001419141946194619A81AA81AA81AA81A00
:1000E0008619A81A291A291A981AA81AA81AA11A38
:1000F000361A361A361A361A361A361A361A361A80
:10010000361A361A361A361A361A361A361A361A6F
:10011000451A531A5A1A611A6B1A2D1B2D1B3F1BB5
:100120003F1B361B3F1B3F1B3F1B2D1B2D1B3B1B30
:100130003F1B3F1B3B1B69299029882A9029882A4D
:10014000DC29FF29882A562A652A4C6967687400C9
:100150002D2D2D2D2D007363723A2E007363723A8C
:100160002A006361703A2E006361703A2A006E754E
:100170006D3A2E006E756D3A2A00537461747300E7
:100180002D2D2D2D2D0020554E440020524742008C
:10019000204E41560020424153004C617965720067
:1001A00001535400550056425F0060006100570043
:1001B0005C005D005E00000059005A005B0000001A
:1001C000620062006300580049004A004B0001537E
:1001D0004C004D004E000000000000000000000038
:1001E0000000520000000000500051004F000000CD
:1001F000C35CCD5CC25C0100C65CC55C0000000055
:10020000C85CC75C00000000CA5CC95C000000005C
:10021000005C00000000000000047F3F1F643214F7
:10022000643214783C1E1E140A0522232526282930
:100230002A2C2D2F3032333536383A3B3D3E404262
:10024000434547494A4C4E5051535557595A5C5EA5
:100250006062646668696B6D6F71737577797B7DB9
:100260007F81838587898A8C8E90929496989A9CB8
:100270009E9FA1A3A5A7A8AAACAEAFB1B3B4B6B8D0
:10028000B9BBBCBEBFC1C2C3C5C6C7C9CACBCCCD32
:10029000CED0D1D2D2D3D4D5D6D7D7D8D9D9DADA0D
:1002A000DBDBDBDCDCDCDCDCDDDDDDDDDCDCDCDC8D
:1002B000DCDBDBDBDADAD9D9D8D7D7D6D5D4D3D2C1
:1002C000D2D1D0CECDCCCBCAC9C7C6C5C3C2C1BF9F
:1002D000BEBCBBB9B8B6B4B3B1AFAEACAAA8A7A503
:1002E000A3A19F9E9C9A98969492908E8C8A8987BF
:1002F0008583817F7D7B79777573716F6D6B69689D
:10030000666462605E5C5A5957555351504E4C4A70
:100310004947454342403E3D3B3A3836353332301B
:100320002F2D2C2A292826252322FFAA7F5540007D
:1003300000000000000000000001010101010101B6
:100340000101020202020202020203030303030389
:10035000030404040404050505050506060606064F
:1003600007070707080808080909090A0A0A0B0B02
:100370000B0C0C0C0D0D0D0E0E0E0F0F101010119E
:10038000111212131314141515161617171818191D
:10039000191A1A1B1C1C1D1D1E1F1F202121222380
:1003A0002324252526272828292A2B2C2C2D2E2FBF
:1003B00030313132333435363738393A3B3C3D3ED3
:1003C0003F404142434445464748494B4C4D4E4FC0
:1003D00050525354555758595A5C5D5E606163647E
:1003E0006567686A6B6C6E6F7172747677797A7C08
:1003F0007D7F8182848687898B8D8E90929495975C
:10040000999B9D9FA1A2A4A6A8AAACAEB0B2B4B677
:10041000B9BBBDBFC1C3C5C8CACCCED0D3D5D7DA4E
:10042000DCDEE1E3E6E8EAEDEFF2F4F7F9FCFF00E9
:10043000AE00AF00DA02818FD9F1DB40A4A62EAF67
:1004400000A0C000A1C800AED580A81FD300408D79
:100450001420000000000000003E5B4F5B3E003EA9
:100460006B4F6B3E001C3E7C3E1C00183C7E3C18D3
:10047000001C577D571C001C5E7F5E1C0000183C52
:10048000180000FFE7C3E7FF00001824180000FF72
:10049000E7DBE7FF0030483A060E002629792926D7
:1004A00000407F05050700407F05253F005A3CE7D7
:1004B0003C5A007F3E1C1C0800081C1C3E7F001498
:1004C000227F2214005F5F005F5F0006097F017FCB
:1004D00000006689956A0060606060600094A2FF19
:1004E000A2940008047E04080010207E201000085A
:1004F000082A1C0800081C2A0808001E10101010EA
:10050000000C1E0C1E0C0030383E383000060E3E2B
:100510000E060000000000000000005F0000000068
:100520000700070000147F147F1400242A7F2A127A
:100530000023130864620036495620500000080763
:10054000030000001C224100000041221C00002A80
:100550001C7F1C2A0008083E08080000807030003C
:10056000000808080808000000606000002010086B
:100570000402003E5149453E0000427F40000072A7
:1005800049494946002141494D33001814127F1052
:10059000002745454539003C4A4949310041211170
:1005A000090700364949493600464949291E0000D5
:1005B0000014000000004034000000000814224134
:1005C00000141414141400004122140800020159EC
:1005D0000906003E415D594E007C1211127C007FDD
:1005E00049494936003E41414122007F4141413E57
:1005F000007F49494941007F09090901003E414105
:100600005173007F0808087F0000417F41000020EF
:1006100040413F01007F08142241007F404040409C
:10062000007F021C027F007F0408107F003E4141D2
:10063000413E007F09090906003E4151215E007FCD
:10064000091929460026494949320003017F01035F
:10065000003F4040403F001F2040201F003F4038E7
:10066000403F00631408146300030478040300612E
:1006700059494D4300007F414141000204081020C8
:1006800000004141417F000402010204004040405B
:100690004040000003070800002054547840007FC9
:1006A0002844443800384444442800384444287FCF
:1006B0000038545454180000087E09020018A4A4FD
:1006C0009C78007F080404780000447D40000020EE
:1006D00040403D00007F102844000000417F400062
:1006E000007C04780478007C0804047800384444D2
:1006F000443800FC182424180018242418FC007C1A
:10070000080404080048545454240004043F4424BA
:10071000003C4040207C001C2040201C003C40301D
:10072000403C004428102844004C9090907C0044A9
:1007300064544C440000083641000000007700007B
:10074000000041360800000201020402003C26239A
:10075000263C00000000000000404040F0F8F8FF98
:1007600038FFF8F83FF8F8FF38FFF8F8F04040405D
:1007700000000000000080C0C0C0800000C0C08039
:1007800000000080C0C000C0C0000080C0C00000E9
:10079000000000C0C0C0C0C000C0C0000000000019
:1007A0000000000000000000000000000000000049
:1007B0000000000000000000000000000000000039
:1007C0000000000000000000000000000000000029
:1007D0000000C0F0F8FC3E1E06010000007F414111
:1007E000417F007F4141417F000080C0E07E5B4F40
:1007F0005BFEC00000C000DCD7DEDEDED7DC00C060
:1008000000000000000000000000000000000000E8
:10081000000000000000000000494949FFFFFFFF01
:10082000E0DFBFBF00BFBFDFE0FFFFFFFF49494977
:1008300000000000001F3F6060E0BF1F007F7F07D7
:100840001E381E077F7F007F7F0E1F3B71600000F8
:100850000000007F7F0C0C0C007E7E007F7E030377
:10086000007F7E03037E7E03037F7E000F3E703C8D
:10087000063C703E0F00327B49493F7E007F7E037D
:1008800003001E3F69696F260000000000000000A1
:100890000000030F1F3F3C7870600000007F414163
:1008A000417F007F4141417F00307B7F78302020B5
:1008B00030787F3B0003000F7F0F0F0F7F0F000387
:1008C0000000000000000000000000000000000028
:1008D000000000000000000000010101070F0F7F71
:1008E0000F7F0F0F7E0F0F7F0F7F0F0F070101018B
:1008F00000000000000000000000010100000000F6
:1009000000000000000000000000000000000000E7
:1009100000000000000000000000000000000000D7
:1009200000000000000000000000000000000000C7
:1009300000000000000000000000000000000000B7
:1009400000000000000000000000000000000000A7
:100950000000000000000000000000000000000097
:100960000000000000000000000000000000000087
:100970000000000000000000000000000000000077
:100980000000000000000000000000000000000067
:100990000000000403300000000E03590061006DE8
:1009A0000070006100640000001E034D00610074CF
:1009B000007400690061002000440061006C0020A8
:1009C00000420065006E0000000403090409023BB8
:1009D00000020100A0FA090400000103010100095E
:1009E00021110100012240000705810308000A09C6
:1009F0000401000103000000092111010001223B54
:100A0000000705820320000A1201100100000008FF
:100A1000EDFE606001000102030105010906A1016C
:100A20008505050719E029E71500250195087501D9
:100A300081020508190129059505750191029501A5
:100A4000750391010507190029EF1500250195F09F
:100A500075018102C005010906A101050719E029F8
:100A6000E71500250195087501810295017508813A
:100A70000105081901290595057501910295017572
:100A80000391010507190029FF150026FF009506AF
:100A900075088100C00011241FBECFEFDAE0DEBF71
:100AA000CDBF04B603FE27C08091C2049091C30459
:100AB000A091C404B091C5048730904BA740B04BBF
:100AC000D1F41092C2041092C3041092C404109284
:100AD000C50414BE84B7877F84BF0FB6F894A89569
:100AE00080916000886180936000109260000FBE6A
:100AF000E0E0F8E3099511E0A0E0B1E0E6EBFCE509
:100B000002C005900D92AC37B107D9F724E0ACE7ED
:100B1000B1E001C01D92A23CB207E1F70E9452254C
:100B20000C94592E0C94000083E00895CF9360E05C
:100B30008AE991E00E947B136091390270913A0238
:100B400080913B0290913C020E94AD21813059F08E
:100B500030F0823061F460E08BE891E00BC060E03F
:100B600085E991E007C060E080E991E003C060E0C2
:100B700086E891E00E948D130E947416C82F60E0F1
:100B800080E891E00E947B1360E08AE791E00E9498
:100B90007B13C0FD03C08EE691E002C084E791E0C4
:100BA00060E00E947B13C1FD03C082E691E002C0B9
:100BB00088E691E060E00E947B13C2FD03C086E5F9
:100BC00091E002C08CE591E060E00E947B1380918F
:100BD0008E0221E1622F0E94BC2A482F80918D0253
:100BE0000E94BC2A90918C0296959695969520919C
:100BF0008B02322F369520FD02C02EE201C02AE280
:100C00001F924F931F928F931F929F931F923F9318
:100C10001F922F9384E291E09F938F931F928CE118
:100C20008F938CE791E09F938F930E94192B60E044
:100C300080E591E00E947B1360E08AE491E00E94ED
:100C40007B138DB79EB740960FB6F8949EBF0FBE2C
:100C50008DBF60E08CE791E0CF910C945F1381E051
:100C6000089581E008950C9431061F93CF93DF938C
:100C700000D000D01F92CDB7DEB749835A836B8373
:100C80002091F10189819A81211112C0662349F0D6
:100C90000E947B20182F682F89819A810E9426202C
:100CA00003C00E945020182F69817A81812F04C0CF
:100CB0000E947B2069817A810F900F900F900F9096
:100CC0000F90DF91CF911F910C949908FC01408106
:100CD00051816281738184810C9435060E94FD21CB
:100CE000811102C00E9477220C94130B0C94150BF7
:100CF00008950C9478060C94790608950E941B1BA5
:100D00000E947D062FEF84E39CE0215080409040BC
:100D1000E1F700C000000C94EC230F931F93CF93D6
:100D2000DF938C010E946606EC01B8010E94330635
:100D3000882309F4F4C1B801CE010E944915882323
:100D400009F4EDC1CA3CFCE5DF0741F4F8018281FA
:100D5000882309F4E4C10E94D60EE1C1CB3C8CE5A6
:100D6000D80708F00FC1C33C9CE5D90761F4F8012E
:100D70008281882309F4D3C10E94FC208272E1F0B1
:100D80000E94F110CCC1C43CECE5DE07C0F0C63CCB
:100D90009CE5D90709F4C7C008F0D9C0C43CFCE5FC
:100DA000DF0709F0C8C0F8018281882309F4B7C1C0
:100DB0000E94FC20827221F30E94E410B0C1C53170
:100DC000FCE5DF0708F078C0C2308CE5D80708F4EE
:100DD00052C0F8018281882309F454C00E94FD2189
:100DE000811102C00E9477220E94102290E090930D
:100DF000B4048093B304FE01E350FC45E231F105F5
:100E000030F4EA5AFF4F8091B3040C94F02A809199
:100E1000B304816027C0826025C0846023C08061E4
:100E200021C080621FC080641DC080681BC08460B8
:100E3000886018C08E7F16C08D7F14C08B7F12C053
:100E40008F7E10C08F7D0EC08F7B0CC08F770AC045
:100E50008B7F877F07C087FB222720F991E09227AD
:100E600090FB87F98093B3048091B3040E9414220D
:100E70000E941B1B54C1C1159CE5D90751F0C1301C
:100E8000DC4579F0C801DF91CF911F910F910C944F
:100E90002F06F8018281882309F441C10E947E0651
:100EA0003EC1F8018281882309F439C1809166022C
:100EB00081608093660233C1C631FCE5DF0739F5F6
:100EC0000E94FC20982FF801828120911701309117
:100ED0001801882379F09A7A81E009F480E0809300
:100EE0009901911102C069E201C065E3C9010E9444
:100EF000DF220AC080919901811102C069E201C01C
:100F000065E3C9010E94EA220E944A2108C1C23C4D
:100F1000DC4509F0B7CFF8018281882309F4FFC0CE
:100F20000E94FF10FCC0F8018281882309F4F7C0F9
:100F30000E949A0EF4C0C53CDC4509F0A3CFF8012D
:100F40008281882309F4EBC00E948D0EE8C0F8016D
:100F50008281C83CFCE5DF0731F4882309F4DFC057
:100F60000E94B80EDCC0C93CDC4530F4882309F48B
:100F7000D6C00E94A90ED3C0882309F4D0C00E9415
:100F8000C70ECDC0C13DECE5DE0791F4F8018281CA
:100F9000882309F4C4C00E940A0D8F3028F00E94F3
:100FA0000A0D843108F408CF8FE00E94F410B7C016
:100FB000C23DFCE5DF0708F05AC0CD3C8CE5D80700
:100FC00039F4F8018281882309F4A9C081E0EDCFCA
:100FD000CE3C9CE5D907C0F4CB3CECE5DE0741F400
:100FE000F8018281882309F49AC00E94120D97C0EB
:100FF000CC3CDC4509F046CFF8018281882309F416
:101000008EC00E94230D8BC0F8018281CF3CFCE58D
:10101000DF0771F4882309F482C00E940A0D86302C
:1010200028F00E940A0D883008F4C6CE86E0BDCFB5
:10103000C03DDC4570F4882309F471C00E940A0D9C
:10104000823028F00E940A0D853008F4B5CE82E087
:10105000ACCF882309F463C00E940A0D893028F0C0
:101060000E940A0D8E3008F4A7CE89E09ECFC53DC0
:10107000ECE5DE0739F4F8018281882309F44FC0DA
:1010800083E293CFC63DFCE5DF0740F5F80182819E
:10109000C33DFCE5DF0729F4882309F440C088E15B
:1010A00084CFC43DDC4568F48823C9F10E940A0D51
:1010B000853128F00E940A0D873108F47DCE85E144
:1010C00074CF882361F10E940A0D893128F00E94B3
:1010D0000A0D823208F470CE89E167CFCD3DECE590
:1010E000DE0741F4F80182818823C9F082E00E9482
:1010F000F12515C0CE3DFCE5DF0739F4F80182810A
:10110000882369F00E9477220AC0CC3DDC4509F0B3
:10111000B9CEF8018281882311F080E0E8CF80E029
:10112000DF91CF911F910F91089580E090E0089595
:101130000895E72FF0E095E0899FE00DF11D11245F
:10114000EE0FFF1FEE0FFF1FE60FF11DEE0FFF1F4B
:10115000E056FE4F859194910895880F991FFC01E8
:10116000E85EFD4F859194910895CF93DF930E949F
:1011700099080E94710AEC018115904508F041C060
:10118000C11580E4D80708F028C1C83ED10510F584
:10119000C03ED10508F0A1C1C83AD10578F4C53ADE
:1011A000D10508F0A2C0C130D10509F496C108F4F8
:1011B00047C1C430D10508F090C142C1CF3BD10531
:1011C00008F49EC0C03CD10508F43AC1CE01805C51
:1011D0009109F5C0C11590E2D90758F4C11521E075
:1011E000D20708F07AC1C03FD10508F429C1D06503
:1011F00074C1C11580E3D80708F0E5C0CE019F7027
:10120000DEC0C11595E5D90708F043C0C11524E536
:10121000D20708F0F9C0C11582E5D80708F5C11555
:1012200091E5D90708F0DCC0CE0174E0969587956A
:101230007A95E1F783709C2F937021E030E002C033
:10124000220F331F9A95E2F73C68382BCF70C69572
:10125000C69580E2C89FE0011124C22BD32B3DC16B
:101260009E01237033278C2F86958695C115D34513
:1012700008F0BBC0C1E0D0E002C0CC0FDD1F2A9552
:10128000E2F720E2829FC0011124C82BD92BDC6831
:1012900024C1C11529E5D207A0F4C11588E5D807F6
:1012A00008F0B7C0C11596E5D90708F0C9C08C2F62
:1012B0000E94ED0A8F71C82FD0E0DC2FCC27D062BE
:1012C0000CC1C1152AE5D20708F4A8C0CE0190567A
:1012D0008115904208F0B4C08D2F8F710E94ED0AE5
:1012E000DD27D0628F71D82BF8C0C53AD10509F43B
:1012F000AAC0C63AD10509F0A9C0C2E8D0E4EDC041
:10130000C83AD10509F4A5C0C93AD10509F4A4C069
:10131000CA3AD10509F4A3C0CB3AD10509F4A2C059
:10132000CC3AD10509F4A1C0CB3BD10509F4A0C04A
:10133000CC3BD10509F49FC0CD3AD10509F49EC03C
:10134000C03BD10509F49DC0CE3AD10509F49CC03B
:10135000CF3AD10509F49BC0C13BD10509F49AC02D
:10136000C23BD10509F499C0C33BD10509F498C02B
:10137000C43BD10509F497C0C53BD10509F496C01B
:10138000C63BD10509F495C0C73BD10509F494C00B
:10139000C83BD10509F493C0C93BD10509F492C0FB
:1013A000CD3BD10509F491C0CE3BD10509F490C0E5
:1013B000CA3BD10509F48FC0C0E0D4E48EC00E94BE
:1013C000AD08EC018AC0CE019927D3FF03C0EC0120
:1013D000D86C83C0EC01D06C80C0DF70D06A7DC057
:1013E000DC2FCC27C16FD06A78C0C1E0D0E002C04A
:1013F000CC0FDD1F2A95E2F720E2829FC001112465
:10140000C82BD92BDA6869C0DC2FCC27C46FD06A0F
:1014100064C0DC2FCC27C06FD06A5FC08C2F8F7068
:101420000E94ED0A94E0D695C7959A95E1F7CF70A2
:10143000D0E0DC2FCC27D06A8F70806EC82B4DC0D7
:10144000C0E0D0E04AC0C1E8D0E447C0C3E8D0E47F
:1014500044C0C2EED4E441C0C9EED4E43EC0CAEEFA
:10146000D4E43BC0C5EBD4E438C0C6EBD4E435C00B
:10147000C3EBD4E432C0C4EBD4E42FC0C7EBD4E454
:101480002CC0CCECD4E429C0CDECD4E426C0C3E815
:10149000D5E423C0CAE8D5E420C0C2E9D5E41DC024
:1014A000C4E9D5E41AC0C1E2D6E417C0C3E2D6E469
:1014B00014C0C4E2D6E411C0C5E2D6E40EC0C6E250
:1014C000D6E40BC0C7E2D6E408C0CFE6D4E405C03A
:1014D000C0E7D4E402C0CAE2D6E4CE01DF91CF91E6
:1014E00008958238910549F1B0F48133910509F4EA
:1014F00059C048F48932910509F44FC08A329105E8
:1015000009F455C008958533910509F441C0893324
:10151000910599F00895833E910531F138F4803EAC
:10152000910591F0823E9105A9F00895863E9105BE
:1015300001F1873E910539F108952091B30420FD12
:101540003BC021FD39C008958091B30480FF34C0B1
:1015500089E341C08091B30482FF30C08091B3041D
:1015600084FD2EC083EE37C08091B30482FD26C077
:10157000F5CF8091B30483FF25C08091B30484FD2F
:101580001FC087EE28C08091B30483FD1BC0F5CF38
:101590008091B30485FD18C019C08091B30485FD06
:1015A00015C012C08091B30486FD12C013C0809193
:1015B000B30486FD0FC00CC080EE0DC082EE0BC0E0
:1015C00080E009C086EE07C089E205C085E303C05C
:1015D0008AE201C081E390E008959091B30492FF04
:1015E0000DC0282F2871283019F4877F846006C029
:1015F000282F2471243011F48B7F886093FF0DC055
:10160000282F2871283119F4877E846106C0282F7D
:101610002471243111F48B7E886194FD877E0895B6
:1016200008950C94100B0C94110B0C94100BE82FD4
:10163000F0E0E656FE4F808108950895CF93DF9342
:10164000A9E4B1E04EE451E061E070E08D91E82F53
:10165000E295EF70F0E091A18F709B0101C0220F25
:101660008A95EAF7822F8095892381A34A175B0721
:1016700069F7A5E4B1E049E451E061E070E08D91E3
:10168000E82FE295EF70F0E021A18F70EB0102C02E
:10169000CC0FDD1F8A95E2F7CE019C2F9095922307
:1016A00091A392A1892B82A34A175B0741F7EFE927
:1016B000F1E0AAE9B1E084EA91E011921D928E175F
:1016C0009F07D9F785E00E94FB0BDF91CF910C9427
:1016D0006E062F923F925F926F927F928F929F92AF
:1016E000AF92BF92CF92DF92EF92FF920F931F9330
:1016F000CF93DF9399E4292E91E0392EAFE9B1E041
:1017000024EAC22E21E0D22E20E001E010E05D01AB
:101710003C911C92E10189911E01E82FE295EF7046
:10172000F0E091A18F70A80101C0440F8A95EAF7FB
:10173000892F842B81A382A1742E7094872182A388
:10174000D0EADA95F1F785E4E82E81E0F82E60E042
:1017500070E0E70169907E01862D82958F7090E0A0
:10176000EC0188A05C90912C962D9F7002C09594FE
:1017700087949A95E2F780FC08C0902F062E01C04E
:10178000990F0A94EAF7892F01C080E085298C938C
:101790006F5F7F4F64307105E1F681A1782271A2FD
:1017A00082A1482B42A3119681E0F5019081931309
:1017B00001C080E0282BCA16DB0609F0A8CF45E05F
:1017C0006AE971E08FE991E00E94FC0B0E947606C5
:1017D00081E0DF91CF911F910F91FF90EF90DF900B
:1017E000CF90BF90AF909F908F907F906F905F90C1
:1017F0003F902F9008950895FF920F931F93CF93DA
:10180000DF938C01F62ED72FC42F222349F081E0DD
:101810008093A6010E9490239093A5018093A40138
:101820008091A6018823C1F08091A4019091A50127
:101830000E949C23069780F0EF2DFD2FD8014C2F9E
:1018400050E0CD01801B910B841795071CF48D91FE
:101850008193F7CF1092A601DF91CF911F910F9145
:10186000FF900895EF92FF920F931F93CF93DF9312
:10187000F62F472FE82F711103C0682F782F7CC0F7
:10188000C72FD0E0082F10E026E0629FC00111248E
:101890002FEF30E0B9010E94C82A5BEA5603C0016D
:1018A000579F900D11248F0F911D8F0F911D982F11
:1018B000990F890F7901EC1AFD0AE09ED001E19E93
:1018C000B00DF09EB00D1124489FA0011124452FAA
:1018D00055277901E41AF50AE09EA001E19E500D1A
:1018E000F09E500D11247901E81AF108EC9EC00118
:1018F000ED9E900DFC9E900D1124892F9927281B99
:10190000390B209FC001219F900D309F900D112415
:101910006230710599F050F461157105E9F061309C
:101920007105B9F48B2F7E2FE52F18C06430710537
:1019300061F038F06630710579F00BC0892F7E2F89
:1019400002C08E2F752FEB2F09C08E2F7B2FE92F12
:1019500005C0852F7B2F02C08B2F792FF0E0E15D32
:10196000FC4F6491E72FF0E0E15DFC4F7491E82FAC
:10197000F0E0E15DFC4F8491DF91CF911F910F91D9
:10198000FF90EF9008950895CF93DF93762FE901AC
:10199000682F842F0E94320C698378838A83DF91B9
:1019A000CF91089580918B02282F269530E0211544
:1019B000310519F48170826005C02532310524F0AB
:1019C0008170886480938B02089588E090E00C9485
:1019D000E22DCF92DF92EF92FF926B017C010E9489
:1019E000D20CB701A60188E090E0FF90EF90DF9065
:1019F000CF900C94002EEBE8F2E083E0808311821C
:101A00008FEF8283838314826081718182819381CD
:101A10000C94E90C80918B0280FF02C0869508959A
:101A200080E0089580918F02833018F48F5F809357
:101A30008F0260918B0270918C0280918D02909147
:101A40008E020C94E90C80918F02882319F081504A
:101A500080938F0260918B0270918C0280918D0235
:101A600090918E020C94E90C6091040170E08091D9
:101A70008B0280FF0AC08091AB0123E0829FC001EE
:101A8000112480579D4F0C940D128091AA019091C2
:101A90000301891780F7E82FF0E09F01220F331F21
:101AA000E20FF31FE057FD4F1182108212828F5F09
:101AB000F0CF90918B0290FF16C09091AA012091D7
:101AC0000301921770F4E92FF0E0DF01AA0FBB1FAA
:101AD000EA0FFB1FE057FD4F8183608342839F5FC6
:101AE000F0CF0C94340D0895CF93DF9300D01F9264
:101AF000CDB7DEB790918B0290FF0AC09E012F5F99
:101B00003F4F0E94C40C4B8169818A810E94590D0C
:101B10000F900F900F90DF91CF910895CF93DF93A7
:101B2000EC01EC81F0E0E65DFD4F4491EBE8F2E082
:101B3000628181810E94740D8C818F5F8C83DF9123
:101B4000CF910895CF93DF93EC01EBE8F2E043816E
:101B500062818C810E94740D8C818F5F8C83DF91F8
:101B6000CF9108950F931F93CF93DF9300D01F92CF
:101B7000CDB7DEB78C018091A70181110AC09E010B
:101B80002F5F3F4F4FEF6FEF0E94C40C8A8180930D
:101B9000A701F8018481813051F028F0823061F48E
:101BA0004091A7010AC08091A70140E007C0609161
:101BB000A70140E080E003C040E080E060E00E94D8
:101BC000590DF801848190E0019663E070E00E9475
:101BD000DC2A84830F900F900F90DF91CF911F919B
:101BE0000F910895AF92BF92CF92DF92EF92FF9242
:101BF0000F931F93CF93DF9300D01F92CDB7DEB723
:101C0000182FF62E042FE22E90918B0290FF6DC0BC
:101C1000E92FE695AE2FB0E0A25BBE4F8C9180938A
:101C2000B3019E7F923061F49E012F5F3F4F812F61
:101C30000E94C40C4B8169818A810E94590D43C066
:101C4000823019F400918E023EC0863019F4109152
:101C50008C0239C08930D9F38931A9F5E9518E2F29
:101C60008170D82EE695F0E0E65DFC4FA590B4902B
:101C7000C12CBB2460910201C61618F52C2D30E052
:101C8000A29EC001A39E900DB29E900D112470E003
:101C90000E94C82A812FD11002C0860F01C0861B66
:101CA0009091AA01290F311DA901440F551F240F3E
:101CB000351F20573D4F402F6F2D0E94C40CC394F9
:101CC000D9CF0E94340D10938C02F0928D020093B4
:101CD0008E02EE2051F060918B0270918C02809107
:101CE0008D0290918E020E94E90C0F900F900F9040
:101CF000DF91CF911F910F91FF90EF90DF90CF90E8
:101D0000BF90AF900895EBE8F2E09181282F4381D6
:101D1000628188E0890F0C94F20D81E00C94830EAF
:101D2000EBE8F2E09181282F4381628188EF890FEF
:101D30000C94F20D81E00C94900EEBE8F2E06281DD
:101D400021E1620F08F46FEF282F438181810C9409
:101D5000F20D81E00C949D0EEBE8F2E0628121E14E
:101D6000621B08F460E0282F438181810C94F20DFE
:101D700081E00C94AC0EEBE8F2E0438121E1420FEC
:101D800008F44FEF282F628181810C94F20D81E0DD
:101D90000C94BB0EEBE8F2E0438121E1421B08F416
:101DA00040E0282F628181810C94F20D81E00C9437
:101DB000CA0E20E00C94F20DFF920F931F93CF9365
:101DC000DF93EC01F12C0FEF10E060910201F616A9
:101DD000F0F48091AA012F2D30E0280F311DC901A8
:101DE000880F991F280F391F20573D4F70E0C801F9
:101DF0000E94DC2A962F8C8140918E0260918D0288
:101E0000F99E800D11240E94C40CF394DECF0E9431
:101E1000340D9A818C8190FF02C08F5F01C0815088
:101E20008C83DF91CF911F910F91FF900895BF9206
:101E3000CF92DF92EF92FF920F931F93CF93DF9396
:101E4000FC01828180FF02C00FEF01C001E010E0C1
:101E5000809102011817E0F58091AA01C12ED12CC2
:101E6000E601C80FD11DCE01880F991FC80FD91FD9
:101E7000C057DD4F198218821A8234E0E32EF12C0C
:101E8000B12C8091A9018B0D87FF03C090910201B5
:101E9000890F082E000C990BC816D90691F4809171
:101EA0008E028E9DA0018F9D500D11245595479552
:101EB000559547959E0160918D0280918C020E94FC
:101EC000C40CB00EF1E0EF1AF108D9F61F5FC0CFD5
:101ED0000E94340D8091A901013031F4811102C0BA
:101EE00080910201815007C090E00196609102014B
:101EF00070E00E94DC2A8093A901DF91CF911F91AD
:101F00000F91FF90EF90DF90CF90BF900895CF9307
:101F10008091AA0190910301891770F4E82FF0E0F5
:101F20009F01220F331FE20FF31FE057FD4F118275
:101F3000108212828F5FF0CFC0E060910201C6175D
:101F4000C0F5EC2FF0E070E0CF010E94DC2A209178
:101F5000AA01820F2091A801022E000C330B90E001
:101F6000E217F307CCF020910101022E000C330B95
:101F70002E173F078CF09C01220F331F820F931FF7
:101F80009C0120573D4F40918E0260918D028091BF
:101F90008C020E94C40C0BC0FC01EE0FFF1F8E0FC1
:101FA0009F1FFC01E057FD4F118210821282CF5F0C
:101FB000C4CF0E94340D209100018091A801820FAE
:101FC0008093A80190910101920F9093010119163D
:101FD0005CF4082E000C990B4091020150E0415036
:101FE0005109841795071CF0219520930001CF918A
:101FF00008950F931F93CF93DF938C01FC0184818D
:10200000958101968170992795838483C0E0D5E5F9
:1020100080910201C81700F58091AA012C2F30E0B1
:10202000280F311DC901880F991F280F391F20570C
:102030003D4F4C2F4695F80184819581840F911D69
:10204000817040918E0260918D028D9F802D1124B0
:102050000E94C40CCF5FDCCFDF91CF911F910F9115
:102060000C94340D0F931F93CF93DF93EC0100E09A
:1020700010E080910201282F30E00217130724F5A9
:102080009091AA019801290F311DA901440F551FF4
:10209000240F351F20573D4F869590E04C8108173F
:1020A00019071CF4442331F002C0411103C04091D0
:1020B0008E0201C040E060918D0280918C020E94EE
:1020C000C40C0F5F1F4FD5CF0E94340D8C8190E060
:1020D0000196817099278C83DF91CF911F910F9189
:1020E0000895EBE8F2E080818E7F808360817181CA
:1020F000828193810E94E90C1092B4012FEF80E756
:1021000092E0215080409040E1F700C000000C9424
:10211000340D60918B02669570E04BE050E085E0F5
:1021200091E00E94FF2A892B19F481E08093B40189
:102130000E9490239093AD018093AC0108959091FB
:102140008B0290FF35C09170811102C0926006C071
:10215000853210F0986402C0880F982B90938B0200
:10216000662351F060918B0270918C0280918D02F8
:1021700090918E020E94E90C60918B02669570E04E
:102180004BE050E085E091E00E94FF2A892B19F096
:102190001092B40102C00E94891081E08093AF01C7
:1021A00040918E0260918D0280918C020C94D90E28
:1021B0000895682F90918B02969581E0890F853262
:1021C00008F081E00C949F1081E00C94D910682FE6
:1021D00090918B0296958FEF890F09F484E20C940D
:1021E0009F1081E00C94E71061E00C949F10EBE8E5
:1021F000F2E080818160808386950C94F410809158
:102200008B0280FD0C9471100C94F71060E00C941C
:102210009F108091B201811133C08091660281606C
:10222000809366020E94FD21811104C00E947722E2
:102230000E94FB0C0E94E50C60938B0270938C0251
:1022400080938D0290938E026E7F61F40E94FB0C4E
:102250000E94E50C60938B0270938C0280938D0238
:1022600090938E020E94D20C1092B40180918B0246
:1022700080FF03C086950E94061181E08093B20121
:1022800008950F931F93CF93DF938091B401882318
:1022900009F48CC08091B301E0918B02E695E81BB4
:1022A000E093AE01823049F4F0E0EA5DFD4FE49145
:1022B000CE2FD0E00EE81DE049C0863049F4F0E0B2
:1022C000ED5DFD4FE491CE2FD0E002EA1DE03EC06F
:1022D000893051F4E695F0E0E05EFD4FE491CE2FB9
:1022E000D0E00CED1EE032C08F3051F4E695F0E006
:1022F000E35EFD4FE491CE2FD0E007E11FE026C062
:10230000853149F4F0E0E65EFD4FE491CE2FD0E058
:1023100007E81FE01BC0883181F0833239F4E8E11F
:10232000F2E0C591D49102EB1DE010C0843251F46B
:10233000C4EFD1E002E310E109C0C8EED3E009EF39
:102340001FE004C0C0EDD7E003EC1CE08091AF01BA
:10235000882389F01092AF010E9490239E0120955E
:102360003095820F931F9093AD018093AC01109232
:10237000B1011092B0018091AC019091AD010E9429
:102380009C238C179D0790F0E091AC01F091AD017A
:10239000CE0FDF1FD093AD01C093AC018CEA91E06A
:1023A000F801DF91CF911F910F910994DF91CF91A7
:1023B0001F910F91089521B3342F3095232331B30A
:1023C000432B3FB7F894FC01680F791FE617F70716
:1023D00089F0819198E041BB000000C087FF21BBDC
:1023E000880F000000C000C000C021BB00C09A954B
:1023F00091F7ECCF3FBF089520B3242B20BB9B0166
:10240000220F331F620F731F0E94DB1187EC90E0D5
:102410000197F1F700C00000089540E10C94FC1111
:10242000EF92FF920F931F93CF93DF93EC017B0109
:1024300064E670E088E70E9490158C01EC0EFD1EAA
:10244000CE15DF0561F017FD0AC0FE01849164E638
:1024500070E00E94E7158C012196892B89F30E9478
:102460006B16C801DF91CF911F910F91FF90EF90F4
:102470000895EBEAF2E080E092E0DF019C011D921A
:1024800021503040E1F7F093AE04E093AD048FEFBC
:102490009FEF9093E1018093E00108950E949405DD
:1024A0008093DC0180FD02C080E801C080E280935F
:1024B000DB010E948A156DE070E086E494E00E94E2
:1024C0001012892B11F080E008958091DC0163E007
:1024D00070E081FD03C083E494E002C080E494E0F6
:1024E0000E941012892B79F76DE070E083E394E08D
:1024F0000E941012892B39F70E94391281E08093D3
:10250000DF018093DE011092DD0108952091DB014F
:1025100036E0839FC0011124629F800D911D11241C
:10252000811522E0920714F080E090E085559D4FE0
:102530009093AE048093AD0408952091AD04309142
:10254000AE04255A32404091DB01642F70E0C9018E
:102550000E94C82A481B463010F4240F311D211553
:1025600082E0380710F020E030E025553D4F3093F1
:10257000AE042093AD040895CF93DF938A3029F4FD
:1025800081E0DF91CF910C942E13C62F682F80919C
:10259000AD049091AE0426E0FC01A5EBB1E0019002
:1025A0000D922A95E1F7613E30F026E0FC01119290
:1025B0002A95E9F70AC0F6E06F9FB00111246D5A21
:1025C0007B4F46E050E00E94F62AC11135C0C09111
:1025D000AD04D091AE0446E050E0BE0185EB91E041
:1025E0000E940C2B892BB1F1CB5AD2409E0185E081
:1025F000369527958A95E1F781E090E0AC0102C01D
:10260000440F551F2A95E2F72091E0013091E10136
:10261000242B352B269645E0D695C7954A95E1F7AC
:1026200002C0880F991FCA95E2F7822B932B9093D3
:10263000E1018093E0010EC0E091AD04F091AE04A1
:102640009F012A5F3F4F2E173F0709F28081809537
:102650008193F9CFDF91CF910C949D12CF93E82F06
:102660002091AD043091AE042B5A32404091DB01F1
:10267000642F70E0C9010E94C82A481B842FEE23F2
:1026800059F066E00E94BC2AC82FC150B0F060E04B
:1026900080E20E94BC12F9CFA901480F511D4115DB
:1026A000524018F080E020E030E0280F311D255521
:1026B0003D4F3093AE042093AD04CF910895FF9227
:1026C0000F931F93CF93DF93EC01F62EFC01019043
:1026D0000020E9F78F0101501109C017D10728F434
:1026E0006F2D89910E94BC12F8CFDF91CF911F917D
:1026F0000F91FF9008951F93CF93DF93EC01162F56
:10270000FE018491882329F0612F0E94BC1221963A
:10271000F7CFDF91CF911F9108950E947B1381E045
:102720000C942E130E9490239093AC048093AB04DE
:102730008091DE0181110BC062E070E081E394E0E2
:102740000E941012892B19F481E08093DE018091A0
:10275000DE0108956F927F928F929F92AF92BF9207
:10276000CF92DF92EF92FF920F931F93CF93DF935D
:102770002091E0013091E1012115310509F4D4C027
:102780008091DD018111D0C061E070E0082F10E080
:102790003B01082E02C0660C771C0A94E2F7A301E5
:1027A00042235323452B11F48F5FF0CF9091DC012E
:1027B000980165E0220F331F6A95E1F790FD12C082
:1027C0008295880F807680931201220F232F221F7B
:1027D000330B319520931501815E80931301109284
:1027E000160112C045E0369527954A95E1F7220F6C
:1027F000220F220F2093120110921501295F2093BE
:10280000130183E08093160124E630E047E050E0B6
:1028100060E171E088E70E941716892B09F084C0F7
:102820008091DC0180FD23C0A80195E0440F551F75
:102830009A95E1F745555D4F04E610E020E230E05F
:1028400060E488E70E943E16892B09F06DC00E9463
:102850009213E301C095D0958091E0019091E10140
:10286000C823D923D093E101C093E0015DC080E289
:10287000EBEBF1E0DF011D928A95E9F785E0000FAF
:10288000111F8A95E1F7A7E7B1E043E751E09924EA
:1028900093942D91EA018991AE01B801680F711DE1
:1028A00065557D4F30E025543E4FF90197E07F019B
:1028B000E21AF30AA92C01C0AA0CEA94EAF77B01F8
:1028C000B12CE70189917E018A21892E8B18D82DA0
:1028D000D770CD2E0D2E000CDD08C82F01C0CC0FF7
:1028E000DA95EAF7D194C194D108D7E0CD22DD245E
:1028F00001C08695CA94EAF78C2BD0808D298083FD
:10290000B39488E0B812DDCF915031969F3F79F6AD
:10291000C1E0AB37BC0709F0BCCF04E610E020E211
:1029200030E04BEB51E08CCFDF91CF911F910F91B5
:10293000FF90EF90DF90CF90BF90AF909F908F90DF
:102940007F906F9008958091DE01882369F062E0A6
:1029500070E08FE294E00E941012892B19F08091B0
:10296000DE0108951092DE019091DE0181E0892759
:1029700008958091DF018823B9F060E080E00E9433
:1029800086120E9496050E94AA138091DE01882378
:1029900059F08091AB049091AC040E949C23813645
:1029A0009A4E10F00C94A31408950F931F93CF9395
:1029B000DF93C62FD42F122FFC0182818823C9F008
:1029C0006093E4010E9490239093E3018093E201DD
:1029D00080E28C0F883008F057C0C77081E001C0DA
:1029E000880FCA95EAF7DF91CF911F910F910C9450
:1029F000D1188091E401681330C08091E201909178
:102A0000E3010E949C23883C910538F500E20D0FFC
:102A1000CD17B9F080E28C0F883040F4C77081E0A8
:102A200001C0880FCA95EAF70E94D818083028F527
:102A300081E09D2F977001C0880F9A95EAF70E9458
:102A4000D118812F0E94BE180830F0F4D77081E0B1
:102A500001C0880FDA95EAF70AC080E28C0F88304F
:102A600098F4C77081E001C0880FCA95EAF7DF913A
:102A7000CF911F910F910C94D818812FDF91CF9196
:102A80001F910F910C94BE18DF91CF911F910F9160
:102A900008959C01CB01203F4CE53407F9F078F410
:102AA000283DFCE53F07B9F0293D4CE5340711F11D
:102AB000273D3C4531F526E241EE61EE1EC0223F46
:102AC000FCE53F0799F070F0233F3C45D1F427E245
:102AD00045EE66EE12C027E245EE0EC026E241EE5C
:102AE00060EE0BC027E245EE64EE07C026E241EE41
:102AF00062EE03C028E241E065EE0E94D51480E05A
:102B00000895FC018281882319F01092E401089550
:102B100081E008951092B9008CE08093B800089588
:102B2000EF92FF920F931F93CF93DF93182FEB0138
:102B30001092BC0084EA8093BC000E9490237C0128
:102B40008091BC0087FD0EC0CF3F8FEFD807C1F347
:102B50000E9490238E199F098C179D0788F38EEF92
:102B60009FEF2EC08091B900887F883041F080911E
:102B7000B900887F803119F08FEF9FEF21C010934B
:102B8000BB0084E88093BC000E9490238C0180915C
:102B9000BC0087FD0CC0CF3F8FEFD807C1F30E9468
:102BA0009023801B910B8C179D0788F3D8CF8091C1
:102BB000B900887F883111F08034F1F680E090E030
:102BC000DF91CF911F910F91FF90EF9008950F9398
:102BD0001F93CF93DF93EB018093BB0084E8809336
:102BE000BC000E9490238C018091BC0087FD0EC028
:102BF000CF3F8FEFD807C1F30E949023801B910B2A
:102C00008C179D0788F38EEF9FEF0CC02091B900C1
:102C1000287F81E090E0283211F480E090E09195E7
:102C200081959109DF91CF911F910F910895CF92D6
:102C3000DF92EF92FF920F931F93CF93DF936B017D
:102C40008A017901B9010E949015E6010C0D1D1D44
:102C5000C017D10761F424E92093BC00DF91CF9124
:102C60001F910F91FF90EF90DF90CF90089597FD07
:102C7000F2CFB70189910E94E715EACFCF92DF9298
:102C8000EF92FF920F931F93CF93DF93C62F6A01AA
:102C90007901B8010E94901597FD11C0B8018C2FE1
:102CA0000E94E715E601EC0CFD1CCE15DF0539F09E
:102CB00097FD05C0B80189910E94E715F6CF24E978
:102CC0002093BC00DF91CF911F910F91FF90EF9067
:102CD000DF90CF90089584E98093BC00089590938D
:102CE000EA018093E9010895E091E901F091EA0198
:102CF000309721F00190F081E02D099480E0089553
:102D0000E091E901F091EA01309799F020912301D7
:102D1000222359F02091B30427FF07C0DC012C9136
:102D200011962C93119725E02C930280F381E02DCE
:102D3000099408952091E7013091E8012817390797
:102D400071F09093E8018093E701E091E901F0913F
:102D5000EA01309721F00680F781E02D099408956B
:102D60002091E5013091E6012817390771F0909321
:102D7000E6018093E501E091E901F091EA013097E5
:102D800021F00084F185E02D0994089585B78068CD
:102D900085BF85B7806885BF089508950C94CD16CA
:102DA0000C94CE160C94CD160C94CD160E94C6161B
:102DB0000E94D2160C94D01681E008950E948723B9
:102DC0000E941E0B80E00E944E120E9410240E945E
:102DD00009110C94D416AF92BF92CF92DF92EF926A
:102DE000FF920F931F93CF93DF93CDB7DEB72A9750
:102DF0000FB6F894DEBF0FBECDBF0E94690BE82E60
:102E00000E94DC16811111C08FEF89838A831B8297
:102E10000E9490238160782F9D838C8349815A8101
:102E20006B818D810E949B1754C08CEEC82E81E06F
:102E3000D82E00E010E0A02E802F0E94170BB82E95
:102E4000F60121916F01F82EF22631F40F5F1F4F2A
:102E50000530110581F7D8CF8091660281FD0E946F
:102E60001D0B80E090E02F2D30E0482FB901082E97
:102E700002C0759567950A94E2F760FF25C08E83BE
:102E8000AF8281E090E06C0102C0CC0CDD1C4A9561
:102E9000E2F72B2D30E02C213D21232B09F480E09B
:102EA00088870E9490238160782F9A8789874E8136
:102EB0005F8168858A850E949B17F801E451FE4F67
:102EC00080818C25808305C001968430910569F648
:102ED000BDCF0E94B914E1100E9492130E94741693
:102EE0009091EB018917B1F00E9474168093EB0169
:102EF0002A960FB6F894DEBF0FBECDBFDF91CF91FB
:102F00001F910F91FF90EF90DF90CF90BF90AF9007
:102F10000C947B062A960FB6F894DEBF0FBECDBF89
:102F2000DF91CF911F910F91FF90EF90DF90CF90A5
:102F3000BF90AF900895CF93DF93CDB7DEB72B97B7
:102F40000FB6F894DEBF0FBECDBF4F835887698799
:102F50007A878B87DE01119686E0FD0111928A95B2
:102F6000E9F785E0FE01379601900D928A95E1F729
:102F700049815A816B817C818D819E810E94EB1DEC
:102F80002B960FB6F894DEBF0FBECDBFDF91CF9169
:102F90000895FC01808191810E94BD2008958823BD
:102FA00009F4BFC0682F8CEF860F813A38F4809106
:102FB0001701909118010E94DF220CC080E2860F59
:102FC000883050F4677081E001C0880F6A95EAF795
:102FD0000E94FF200C944A218BE5860F833070F409
:102FE000653A29F0663A31F083E890E005C081E85F
:102FF00090E002C082E890E00C949A1688E5860F73
:10300000873108F08EC0683A09F445C0693A09F47E
:1030100045C06A3A09F445C06B3A09F445C06C3AB8
:1030200009F445C06B3B09F445C06C3B09F445C04D
:103030006D3A09F445C0603B09F445C06E3A09F4A5
:1030400045C06F3A09F445C0613B09F445C0623B95
:1030500009F445C0633B09F445C0643B09F445C02D
:10306000653B09F445C0663B09F445C0673B09F47C
:1030700045C0683B09F445C0693B09F445C06D3B58
:1030800009F445C06E3B09F445C06A3B09F445C0EC
:1030900080E090E044C082EE90E041C089EE90E094
:1030A0003EC08AEE90E03BC085EB90E038C086EBF6
:1030B00090E035C083EB90E032C084EB90E02FC00D
:1030C00087EB90E02CC08CEC90E029C08DEC90E078
:1030D00026C083E891E023C08AE891E020C082E91D
:1030E00091E01DC084E991E01AC081E292E017C02E
:1030F00083E292E014C084E292E011C085E292E0A3
:103100000EC086E292E00BC087E292E008C08FE634
:1031100090E005C080E790E002C08AE292E00C9463
:10312000B0160895882349F1682F8CEF860F813AF5
:1031300038F480911701909118010E94EA220CC086
:1031400080E2860F883050F4677081E001C0880FFC
:103150006A95EAF70E9405210C944A218BE5860FB7
:10316000833020F480E090E00C949A16685A67311E
:1031700020F480E090E00C94B0160895CF93C82F0F
:103180000E94CF17C93349F42FEF83EC99E0215007
:1031900080409040E1F700C000008C2FCF910C944C
:1031A0009218882321F00E94FF200C944A21089550
:1031B000882321F00E9405210C944A2108958F92C2
:1031C0009F92AF92BF92DF92EF92FF920F931F9365
:1031D000CF93DF937C01D62FC72FFC011581129569
:1031E0001F70028101110E941C210E94F52088237A
:1031F00079F0002369F080E28D0F883048F082E09A
:103200000E9494210E94F52091E0D82ED92601C079
:10321000D12CBC2EB2948FE0B8228B2D90E0FC0113
:10322000E859FF4F0C94F02A8C2F807FCF708823B1
:1032300011F0C295C07F002399F0CC2309F463C13B
:1032400080E28D0F883010F0D11104C08C2F0E94C5
:10325000FF2003C08C2F0E940F210E944A2153C1DE
:103260008D2F0E949218CC2309F472C180E28D0F39
:10327000883010F0D11104C08C2F0E94052103C0AA
:103280008C2F0E9415210E944A2162C18C2F807FC1
:10329000CF70803211F0C295C07FDD2319F0D1309C
:1032A000C9F022C0002371F0112341F0113031F434
:1032B0000E942F218C2B0E9437214AC10E942F216E
:1032C0008C2B1DC0112319F0113009F441C10E944B
:1032D00040211AC0002321F0163008F039C10EC079
:1032E000153008F035C110C0002361F0112331F012
:1032F000F701858180FF07C18F7085838C2F0E9425
:10330000D11826C1111110C18C2FBCC08C2F837015
:1033100009F04CC0011125C12D2F2295269527704B
:10332000220F220F6D2F6F70862F90E0A0E0B0E08B
:103330004C015D01022E04C0880C991CAA1CBB1C08
:103340000A94D2F7D4FF12C08FE090E0A0E0B0E082
:1033500004C0880F991FAA1FBB1F2A95D2F7BC0172
:10336000CD01609570958095909503C060E070E008
:10337000CB01C695C695C370C23051F080F4682960
:1033800079298A299B29C13071F00E943C1FE9C02C
:10339000682979298A299B290E944E1FE2C00E9430
:1033A0003C1FC501B4010E942A1FDBC0002319F095
:1033B0008C2F817001C08695882309F4D2C02D2FEF
:1033C000229526952770220F220F6D2F6F70862F62
:1033D00090E0A0E0B0E04C015D01022E04C0880C3A
:1033E000991CAA1CBB1C0A94D2F7D4FF12C08FE010
:1033F00090E0A0E0B0E004C0880F991FAA1FBB1F97
:103400002A95D2F7BC01CD01609570958095909575
:1034100003C060E070E0CB01C695C695C370C230B2
:1034200051F080F4682979298A299B29C13071F0EB
:103430000E94012096C0682979298A299B290E9427
:1034400013208FC00E940120C501B4010E94EF1F0C
:1034500088C08D2F90E0FC01E05EF109E531F105B7
:1034600008F04DC0E858FF4F0C94F02ADF708C2F05
:103470008F71002321F00E94881F8D2F40CF0E9462
:10348000A91F8D2F0E94D81863C0002341F015306A
:1034900008F05EC08C2F8F710E94CE1F59C016306D
:1034A00008F056C0F7CF002339F08C2F8F710E949F
:1034B000881F4EC00023C9F38C2F8F710E94A91F53
:1034C00047C0002329F08C2F8F710E94731F40C0CA
:1034D0000E946E1F3DC0002349F0CF718C2F0E94C7
:1034E000881F63E08C2F0E947F2132C081E00E9400
:1034F0009421123068F182E00E94942129C00023B7
:1035000031F0112391F28D2F0E94CF1721C011238A
:1035100099F2D93349F4FFEF23EC89E0F1502040D0
:103520008040E1F700C000008D2F0E94921810C06B
:103530004C2F4F706D2FC7010E9495080E94991E55
:1035400014C04C2F4F706D2FC7010E9498080DC0FA
:1035500098E0B91631F0B91640F086EF8B0D823045
:1035600020F40E9474160E947B06DD20E1F00E9488
:10357000F12080FD18C0F70112820E94EB200E940A
:10358000881FC7010E94DF1A0E94EB20DF91CF91B4
:103590001F910F91FF90EF90DF90BF90AF909F90A1
:1035A0008F900C94A91FDF91CF911F910F91FF90E5
:1035B000EF90DF90BF90AF909F908F9008950F9302
:1035C0001F93CF93DF93EC01988189812B813C81FC
:1035D000232B31F08F3F31F481E09F3F19F403C07A
:1035E00081E001C080E080FD13C0CE010E948D0605
:1035F000882371F0688179818A810E94C8208C01BA
:103600000E9425200E94161FB801CE010E94DF18DB
:10361000DF91CF911F910F9108950E941C210E946C
:103620002C210C944A2180911701909118010E943D
:10363000F5220C940D1B0E940C210C94131BE92FF6
:10364000E295EF704E2F50E0FA013297EE30F1051F
:10365000B0F4E357FF4F0C94F02A803F91F018F438
:10366000803E68F40EC0843F51F40BC0803E48F0A9
:10367000813F29F406C093FB882780F9089580E0F4
:10368000089581E008950E94BD200E941F1B0895A7
:10369000CF93DF9300D000D01F92CDB7DEB70F904D
:1036A0000F900F900F900F90DF91CF910895CF93CF
:1036B000DF9300D000D000D0CDB7DEB726960FB68E
:1036C000F894DEBF0FBECDBFDF91CF9108951F9359
:1036D000CF93DF93C091F20116E08091F301C817F8
:1036E00099F0D0E01C9FF0011D9FF00D1124EC50CB
:1036F000FE4F4081518162817381848195810E9456
:10370000571B2196C770E9CFDF91CF911F91089584
:103710004091240250912502609126027091270267
:1037200080912802909129020C94571BCF9380918D
:10373000290282958F7009F05FC08091260288234C
:1037400009F45AC08091F201B091F3017091240202
:10375000A0912502409127025091280291E07F3FDD
:1037600009F090E0692FC6E08B1709F445C04115B8
:10377000510521F0AF3F21F020E003C021E001C05E
:10378000262F90E020FD35C0C89FF001C99FF00DA5
:103790001124EC50FE4F21812A132BC020812713C6
:1037A00028C02281211125C02381348124173507A7
:1037B00010F421503109241B350B283C3105C8F485
:1037C000209129022F7020612093290226E0289F52
:1037D000F001299FF00D1124E750FE4F80818F707A
:1037E0008061808384E292E00E94DF1ACF910C9482
:1037F000671B01968770B8CFCF910895AF92BF92A3
:10380000CF92DF92EF92FF920F931F93CF93DF93AC
:10381000CDB7DEB761970FB6F894DEBF0FBECDBF50
:103820008C0185E0F801DE011D9601900D928A95CC
:10383000E1F7D8014C9111965C9111971296EC909A
:1038400030912402609125028091270290912802F4
:10385000009731F06F3F31F421E03F3F19F403C08E
:1038600021E001C020E0B22FB170BB2E20FD60C16D
:10387000F801C380D480A0902602AA2009F4EEC0EB
:1038800020912902C816D90628F0D601A81BB90B29
:10389000CD0104C0809590958C0D9D1DFF24F3945F
:1038A000883C910580F0F12C207F09F09CC07C2D94
:1038B000D98AC88A6E2D89890E94481B84E292E0C9
:1038C0000E94DF1A2DC1822F807F09F054C0561349
:1038D00014C0431312C0FE2CE1100FC02F702061E2
:1038E000209329020E94881B84E292E00E94DF1A42
:1038F00080912902F80185835CC1CD2831F05F3FBA
:1039000031F481E04F3F19F403C081E001C080E051
:1039100080FD03C081E08E2502C080E090E0F82F9A
:10392000F170FF2E80FF1CC08091F2012091F30105
:1039300036E0821709F41AC190E0389FF001399FF0
:10394000F00D1124EC50FE4F6181561306C06081CA
:10395000461303C06281E61203C001968770E9CF67
:10396000FE2CEE2009F425C180912902816080930C
:103970002902F12C1EC1561309C0431307C0E110E0
:1039800005C080912902F8018583A4C04D875E8718
:103990008D859E850E94431B882379F1EE2069F175
:1039A00020912902822F82958F7090E0029774F007
:1039B000809124029091250298878F831986DB8657
:1039C000CA862C87CE0107960E94DF1A86E0F8018E
:1039D000A4E2B2E001900D928A95E1F70E94961B55
:1039E0000E94881B0DC0561771F04D875E878D852C
:1039F0009E850E94431B81111AC0C8010E94DF1AD4
:103A0000FF24F394D6C04313F0CFE110EECF8091A2
:103A10002902F8018583C8010E94DF1A86E0E4E2EA
:103A2000F2E0DF011D928A95E9F7FA2CC2C0EE2080
:103A300021F320912902822F82958F7090E00297C6
:103A40002CF280912402909125029A8389831B8213
:103A5000DD82CC822E83CE010196B6CFC816D90660
:103A600028F0F601E81BF90BCF0104C08095909572
:103A70008C0D9D1D883C910548F0F12C7C2DD98A38
:103A8000C88A6E2D89890E94481B4AC0FE2CEE20F0
:103A900009F4B3CF561333C0431331C02091290228
:103AA00020FD24C0822F82958F70482F50E0411551
:103AB0005105E1F0D80115962C9315974F3051051B
:103AC00049F08F5F982F9295907F822F8F70892B6E
:103AD00015968C93C8010E94DF1A86E0F801A4E2D3
:103AE000B2E001900D928A95E1F73DC086E0F801C1
:103AF000A4E2B2E001900D928A95E1F75AC04D8799
:103B00005E878D859E850E94431B81115FCF8091CA
:103B10002902816080932902C8010E94DF1A49C0EE
:103B2000E4E2F2E086E0DF011D928A95E9F71BC02E
:103B3000EE2009F462CF4D875E878D859E850E94B9
:103B4000431BF82E882309F458CF86E0F801A4E23D
:103B5000B2E001900D928A95E1F784E292E00E9432
:103B6000C9170E94961B0E94881B23C04D875E8741
:103B70008D859E850E94BD20292F22952F70223091
:103B800028F49F7039F0811105C00BC0243028F44F
:103B90009F7049F4805E883020F0C8010E94DF1ACF
:103BA000BF2CFB2C06C0D80115969C91907F91F7F5
:103BB000F8CF8F2D61960FB6F894DEBF0FBECDBF44
:103BC000DF91CF911F910F91FF90EF90DF90CF90F9
:103BD000BF90AF9008951F93CF93DF93CDB7DEB71B
:103BE0002C970FB6F894DEBF0FBECDBF4F8358871A
:103BF00069877A878B879C87CE0107960E94FE1B78
:103C00008823D1F09F8188852A853B85232B31F03D
:103C10008F3F31F481E09F3F19F403C081E001C080
:103C200080E080FD47C04F81588569857A858B8506
:103C30009C850E94571B3EC086E0FE013796DE0140
:103C4000119601900D928A95E1F7FF81E8856A85CA
:103C50007B856115710531F0EF3F31F481E0FF3F65
:103C600019F403C081E001C080E080FD23C02091F1
:103C7000F30130E0C9010196877099274091F20164
:103C800050E084179507F1F1F983EA837D836C8313
:103C900096E0929FD001939FB00D1124AC50BE4F7F
:103CA000FE01319601900D929A95E1F78093F30110
:103CB0000E94671B16E08091F2019091F301891731
:103CC00071F1189FC00111248C509E4F0E94FE1B61
:103CD000882329F1E091F2011E9FF0011124EC509C
:103CE000FE4F4081518162817381848195810E9460
:103CF000571B8091F20190E001968770992780937D
:103D0000F201D9CF0E941B1B1092F3011092F20115
:103D1000E4E2F2E086E0DF011D928A95E9F72C9655
:103D20000FB6F894DEBF0FBECDBFDF91CF911F91CC
:103D30000895EF92FF920F931F93CF93DF938C011F
:103D4000892B09F46CC0F12CEE24E394E801219650
:103D5000F8018491843740F4843008F051C08130F8
:103D600081F0823019F15BC0853709F444C0A8F1B5
:103D70009CE7980F903708F052C08F770E949218F6
:103D800041C00E5F1F4FFE01849190E2980F983062
:103D900050F48770FE2D01C0FF0F8A95EAF78F2F30
:103DA0000E941F2114C00E94CF172DC00E5F1F4F0D
:103DB000FE01849190E2980F983060F48770FE2D98
:103DC00001C0FF0F8A95EAF78F2F0E9425210E94DC
:103DD0004A2119C00E94921816C00E5F1F4FFE01A3
:103DE000C491CC2381F08FE99FE00197F1F700C0E7
:103DF0000000C150F6CF0E5F1F4FFE01F49003C0CC
:103E00000E94CF178E018F2D882309F49FCFEFE9F1
:103E1000FFE03197F1F700C000008150F5CFDF914E
:103E2000CF911F910F91FF90EF90089508950895FD
:103E30000C94171F0C94181F0E941A1F60933D02C8
:103E400070933E0280933F02909340020C940D1BAE
:103E50000C941C1F0F931F9300913D0210913E0282
:103E600020913F0230914002602B712B822B932BCB
:103E70001F910F910C941C1F0F931F9300913D02F3
:103E800010913E0220913F02309140026023712345
:103E9000822393231F910F910C941C1F0F931F9348
:103EA00000913D0210913E0220913F02309140026C
:103EB00060277127822793271F910F910C941C1F55
:103EC0000C94171F0E94601F6093390270933A028E
:103ED00080933B0290933C020C940D1B60E070E0D9
:103EE000CB010C94621F0F931F9341E050E060E000
:103EF00070E08A019B0104C0000F111F221F331FB5
:103F00008A95D2F7C901B8011F910F910C94621FD5
:103F10000F931F9341E050E060E070E004C0440F55
:103F2000551F661F771F8A95D2F7809139029091AD
:103F30003A02A0913B02B0913C028A019B01082BFE
:103F4000192B2A2B3B2BC901B8011F910F910C94FF
:103F5000621F0F931F9341E050E060E070E004C0E7
:103F6000440F551F661F771F8A95D2F740955095CD
:103F7000609570958091390290913A02A0913B0230
:103F8000B0913C028A019B01082319232A233B2379
:103F9000C901B8011F910F910C94621F0F931F93D9
:103FA00041E050E060E070E004C0440F551F661F20
:103FB000771F8A95D2F78091390290913A02A091A9
:103FC0003B02B0913C028A019B01082719272A274E
:103FD0003B27C901B8011F910F910C94621F0F93E9
:103FE0001F930091390210913A0220913B023091C7
:103FF0003C02602B712B822B932B1F910F910C9401
:10400000621F0F931F930091390210913A02209181
:104010003B0230913C0260237123822393231F9142
:104020000F910C94621F0F931F930091390210910E
:104030003A0220913B0230913C026027712782278F
:1040400093271F910F910C94621F0895990F990F58
:10405000890FE82FE695E695E695877051E001C057
:10406000550F8A95EAF785E0E89FF0011124E65D97
:10407000FD4F20E030E070E04081CB01022E02C015
:10408000969587950A94E2F7817081958427852318
:10409000842781932F5F3F4F2530310569F70895BD
:1040A000990F990F890F682F669566956695982FD9
:1040B000977085E0689FB001112440E050E080E0F7
:1040C000FB01E40FF51FE65DFD4F208130E0092E76
:1040D00002C0369527950A94E2F721703327042E03
:1040E00001C0220F0A94EAF7822B4F5F5F4F4530E1
:1040F000510531F70895BF92CF92DF92EF92FF9270
:104100000F931F93CF93DF938C01C0903902D0900F
:104110003A02E0903B02F0903C0280913D02909187
:104120003E02A0913F02B0914002C82AD92AEA2A51
:10413000FB2AC3E0D0E0D701C6010C2E04C0B6951F
:10414000A795979587950A94D2F780FD04C021978B
:1041500090F7B12C07C0BC2EB8018C2F0E94B50877
:104160000197A9F38B2DDF91CF911F910F91FF90B4
:10417000EF90DF90CF90BF900895CF93DF93EC0145
:104180000E947B20BE010E94B508DF91CF91089567
:104190001F93CF93DF93EB019091F101992321F0CD
:1041A000CB010E94BD2013C0882349F0CB010E949F
:1041B0007B20182F682FCE010E94262004C0CB013F
:1041C0000E945020182FBE01812F0E94B508DF9158
:1041D000CF911F9108958091410285958595859590
:1041E00008958091410287700895909141029770DF
:1041F00081E009F480E0089580916502089590912E
:104200006502892B809365020895809590916502DF
:104210008923809365020895109265020895909114
:104220006402892B809364020895809590916402C2
:1042300089238093640208951092640208959091F6
:104240006302892B809363020895809590916302A5
:1042500089238093630208951092630208958091E8
:104260004202089508950C9432210C9433219091C8
:104270004202981721F0809342020C943521089550
:1042800080914202882329F01092420280E00C942F
:1042900035210895E0911701F09118018091650290
:1042A0008083E0911701F091180190818091640260
:1042B000892B8083E0911701F09118019081809102
:1042C0006302892B808380914202882381F0E091F0
:1042D0001701F09118019081892B8083809117013B
:1042E000909118010E94792281110E9440218091B1
:1042F0001701909118010C9480160C94322198E0CB
:10430000899F90011124262B209341020E94881F2F
:10431000809141028595859585950C947D2110921B
:10432000410280E00C947D212091410280958223FE
:1043300080934102982F977079F430E0482F082E2F
:10434000000C550B2417350739F085958595859513
:104350000E94A91F0C948F210895CF92DF92EF92B3
:10436000FF926C01EE24FF24C114D104E104F10496
:1043700021F0C701B60120E101C020E0C72ED82EF0
:10438000E92EFF24C114D104E104F10419F0285FDF
:10439000C701B6016B017C0154E0F694E794D79411
:1043A000C7945A95D1F7C114D104E104F10419F06E
:1043B0002C5FC701B6016B017C0142E0F694E794E3
:1043C000D794C7944A95D1F7C114D104E104F104FC
:1043D00019F02E5FC701B601DC01CB01B695A79598
:1043E00097958795892B8A2B8B2B09F02F5F822F2E
:1043F000FF90EF90DF90CF90089580E090E00E94D2
:10440000E82D21E08D3E9E4F09F020E0822F089597
:1044100082E090E00C94DA2D83E090E00C94DA2DA9
:1044200084E090E00C94DA2D682F84E090E00C9406
:10443000EE2DAB01BC018FE090E00C94002EAB019F
:10444000BC0183E190E00C94002E60E070E0CB01B1
:104450000C941F2260E070E0CB010E9419220C94A2
:1044600025226DEE7EEF80E090E00E940C2E60E051
:1044700082E090E00E94EE2D60E083E090E00E94F8
:10448000EE2D10923D0210923E0210923F021092C9
:10449000400260E084E090E00E94EE2D60E085E064
:1044A00090E00E94EE2D60E086E090E00E94EE2D0C
:1044B0006FEF87E090E00E94EE2D40E050E0BA01FF
:1044C00088E090E00E94002E60E08DE090E00E9485
:1044D000EE2D40E050E0BA0188E190E00E94002E0D
:1044E00060E087E190E00E94EE2D0C942A220C946B
:1044F0003122FC01329680912301882331F0809192
:10450000B30487FF02C09EE101C096E080E09150B5
:1045100028F021912223D9F38F5FF9CF08959C01D0
:10452000FC0132969FEF80E04191461789F09F3F52
:1045300019F4411101C0982F8F5F8630A9F79F3F72
:1045400039F0F901E90FF11D97FDFA95628308959D
:1045500008959C012A5F3F4FFC014281461301C030
:104560001282019682179307B9F70895262F269590
:10457000269526952E3168F4FC01E20FF11D677037
:1045800021E030E001C0220F6A95EAF78281282BF2
:1045900022830895262F2695269526952E3170F490
:1045A000FC01E20FF11D677021E030E001C0220F35
:1045B0006A95EAF720958281282322830895209125
:1045C0002301222329F02091B30427FD0C94B62265
:1045D0000C948F2220912301222329F02091B304EF
:1045E00027FD0C94CA220C94A92220912301FC01DE
:1045F0003296222331F08091B30487FF02C08EE10E
:1046000001C086E0DF011D928A95E9F708950895BB
:104610000C9407230C940723CF930E940A230E9433
:10462000690B0E940823C0E08C2F0E94170B811198
:1046300004C0CF5FC530C1F701C081E0CF910895BC
:104640000C9407230C9420230E9422238091B90408
:10465000843049F11092670220E488E190E00FB6BF
:10466000F894A895809360000FBE2093600080E0CE
:104670000E947B060E94222383B7817F846083BFD0
:1046800083B7816083BF7894889583B78E7F83BF1B
:104690000FB6F894A89580916000886180936000BF
:1046A000109260000FBE08950C9407230E941B1BFC
:1046B0000E9474160E947B060C9454231F920F9242
:1046C0000FB60F9211248F939F93AF93BF93809156
:1046D0006702811113C08091AF049091B004A09142
:1046E000B104B091B2044196A11DB11D8093AF04F5
:1046F0009093B004A093B104B093B204BF91AF9172
:104700009F918F910F900FBE0F901F90189582E090
:1047100084BD93E095BD9AEF97BD80936E00089598
:104720002FB7F8948091AF049091B004A091B10498
:10473000B091B2042FBF0895CF92DF92EF92FF9213
:104740000F931F932FB7F8944091AF045091B0048A
:104750006091B1047091B2042FBF6A017B01EE2415
:10476000FF248C0120E030E0C016D106E206F306FB
:1047700010F4415051099A01281B390BC9011F91AE
:104780000F91FF90EF90DF90CF90089578941F9253
:104790000F920FB60F9211248F939F93AF93BF93F5
:1047A0008091AF049091B004A091B104B091B20493
:1047B0000196A11DB11D8093AF049093B004A09306
:1047C000B104B093B204BF91AF919F918F910F90BC
:1047D0000FBE0F901F90189581E08093E00080E25B
:1047E0008093D8001092C9008FE19EE40197F1F701
:1047F00000C0000087E090EBDC018093C20490933E
:10480000C304A093C404B093C5049CE088E10FB630
:10481000F894A895809360000FBE90936000FFCF3E
:104820000E94FD21811102C00E9477220E9408226D
:10483000809366020E94102290E09093B4048093CB
:10484000B3040E940C22682F70E080E090E00C948A
:10485000281F80918802089508950895CF93DF93CB
:10486000EC010E940126823011F08430D9F580914C
:104870002301882339F08091B30487FF03C060E2ED
:1048800082E002C068E081E08093E9008FEF9091C0
:10489000E800815095FD06C095ED9A95F1F700006E
:1048A0008111F5CF8091E80085FF1CC08091230124
:1048B000811105C040E050E068E070E003C070E0A6
:1048C00040E050E0CE010E941E268091E8008E77E5
:1048D0008093E80080E2FE01A8E6B2E001900D922C
:1048E0008A95E1F7DF91CF91089508958091B804FA
:1048F000811109C00E94AF270E940C288091E2001C
:1049000084608093E20008951092B8040895089599
:1049100008950C94562342E061EC81E00E94282720
:1049200042E261EC82E00C9428278091BB04833042
:1049300009F460C030F4813071F0823009F499C01C
:1049400008958A3009F485C08B3009F46BC0893032
:1049500009F0A7C020C08091BA04813A09F0A1C033
:104960008091E800877F8093E8008091BE04909159
:10497000BF04892B21F460E288E692E003C060E086
:1049800080E090E070E00E9469268091E8008B77DB
:104990008093E80008958091BA04813209F081C0C3
:1049A0008091BE049091BF04029708F07AC0809174
:1049B000E800877F8093E8008091E80082FD05C0D1
:1049C0008091B9048111F8CF6CC02091F3008091DF
:1049D000F20090E0922B029729F48091F1008B7FF6
:1049E000813021F48091F100809388028091E80069
:1049F0008B7753C08091BA04813A09F052C08091FC
:104A0000BE049091BF04892B09F04BC08091E8004F
:104A1000877F8093E8008091E80080FFFCCF809141
:104A2000230136C08091BA048132D9F58091BE0449
:104A30009091BF04892BA9F58091E800877F80932E
:104A4000E8000E945D278091BC04809323010C94B0
:104A50001B1B8091BA04813221F58091E800877F89
:104A60008093E8000E945D278091BD0480938902B5
:104A700008958091BA04813AA1F48091E800877F7B
:104A80008093E8008091E80080FFFCCF809189024C
:104A90008093F1008091E8008E778093E8000C9479
:104AA0005D27089584B7877F84BF0FB6F894A895D3
:104AB00080916000886180936000109260000FBE5A
:104AC00080E880936100109261000E94D6160E94D7
:104AD000AF270E940C288091E20084608093E2005E
:104AE00078940E94A12A0E94DE1689E191E00E943A
:104AF0006F168091B904853069F40E942423809157
:104B0000B7048823B1F30E940C23882391F30E94F9
:104B10000826EFCF0E94EB160E944111EACF0C94B9
:104B20009125292F332723303105C9F060F4213036
:104B3000310581F02230310509F04AC08BE390E065
:104B40002DEC39E049C02132310511F12232310515
:104B500079F13EC082E190E028E03AE03DC099273B
:104B60008130910561F040F08230910559F0039752
:104B700079F5E3E9F9E008C0E9ECF9E005C0E9EA14
:104B8000F9E002C0E9E9F9E0849190E09F0124C0D6
:104B90006115710541F061307105D1F489E090E053
:104BA00028EF39E019C089E090E02FED39E014C01A
:104BB0006115710541F06130710551F48BE390E0AE
:104BC0002AE13AE009C080E490E025E53AE004C03B
:104BD00080E090E020E030E0FA0131832083089506
:104BE0000895CF93C82F0E94F025C0938A02CF91D9
:104BF00008958091B904843011F081E0089582E035
:104C0000089580918A02811102C00C94F9250895BB
:104C100080E189BD82E189BD09B400FEFDCF8091AC
:104C2000D8008F7D8093D8008091E00082608093CF
:104C3000E0008091E00081FDFCCF0895CF92DF92EB
:104C4000EF92FF920F931F93CF93DF93EC018B01B1
:104C50007A010E947C27811133C0E114F10439F0FC
:104C6000F70180819181081B190BC80FD91FC12C36
:104C7000D12C0115110519F18091E80085FD16C0B0
:104C80008091E8008E778093E800E114F10449F008
:104C9000F70180819181C80ED91ED182C08285E042
:104CA0000FC00E947C27882321F30AC0899180933A
:104CB000F10001501109FFEFCF1ADF0ADACF80E0CF
:104CC000DF91CF911F910F91FF90EF90DF90CF90E8
:104CD00008952091C0043091C1042617370748F089
:104CE0006115710539F42091E8002E772093E800D2
:104CF00001C0B901FC0120E06115710579F18091D5
:104D0000B9048823F1F18530F1F18091E80083FD49
:104D10003CC08091E80082FD2EC08091E80080FFB9
:104D2000EBCF2091F3008091F20090E0922B61157F
:104D3000710551F08830910538F421912093F100EC
:104D4000615071090196F3CF21E0089709F020E046
:104D50008091E8008E778093E800CECF2111CFCFED
:104D60000AC08091B904882361F0853061F0809198
:104D7000E80083FD0AC08091E80082FFF2CF80E066
:104D8000089582E0089583E0089581E008952091D8
:104D9000C0043091C1042617370748F0611571052A
:104DA00039F42091E8002E772093E80001C0B90182
:104DB000FC0120E06115710591F18091B90488230F
:104DC00009F440C0853009F43FC08091E80083FDBC
:104DD0003DC08091E80082FD2FC08091E80080FFF7
:104DE000E9CF2091F3008091F20090E0922B6115C1
:104DF000710559F08830910540F424912093F10019
:104E00003196615071090196F2CF21E0089709F0BF
:104E100020E08091E8008E778093E800CBCF2111CD
:104E2000CCCF0AC08091B904882361F0853061F04D
:104E30008091E80083FD0AC08091E80082FFF2CFF4
:104E400080E0089582E0089583E0089581E0089568
:104E5000982F973068F59093E900981739F0709182
:104E6000EC002091ED005091F00003C0242F762F2C
:104E700050E021FD02C09F5FECCF3091EB003E7F00
:104E80003093EB003091ED003D7F3093ED00309199
:104E9000EB0031603093EB007093EC002093ED0059
:104EA0005093F0002091EE0027FDE5CF80E00895BB
:104EB0008F708093E90081E008958091BA0487FFA4
:104EC00011C08091E80082FD05C08091B904811174
:104ED000F8CF11C08091E8008B770BC08091B904A6
:104EE000882349F08091E80080FFF8CF8091E800A6
:104EF0008E778093E80008952091E4003091E500DA
:104F000095E64091EC00842F817040FF23C0809192
:104F1000E80080FD1DC08091B904882399F0853098
:104F200099F08091EB0085FD11C04091E400509113
:104F3000E5002417350729F3915011F09A01E1CFCC
:104F400084E0089582E0089583E0089581E0089563
:104F500080E008954091E80042FFDDCF08950E946F
:104F60001D280E942528E0EEF0E08081816080838A
:104F7000E8EDF0E080818F77808319BCA7EDB0E089
:104F80008C918E7F8C9380818F7E80831092B80469
:104F900008950F931F93CF93DF930E941D280E94C3
:104FA0002528C8EDD0E088818F7788838881806844
:104FB000888388818F7D888319BC1092B9041092F0
:104FC000B5041092B7041092B60400EE10E0F80198
:104FD00080818B7F808388818160888342E060E06C
:104FE00080E00E942827E1EEF0E080818E7F8083C0
:104FF000E2EEF0E080818160808380818860808340
:10500000F80180818E7F8083888180618883DF9131
:10501000CF911F910F910895E8EDF0E080818F7E90
:105020008083E7EDF0E080818160808384E082BF4F
:1050300081E08093B8040C94C927E8EDF0E080810A
:105040008E7F80831092E20008951092DA00109211
:10505000E10008951F920F920FB60F9211242F9323
:105060003F934F935F936F937F938F939F93AF93F0
:10507000BF93EF93FF938091E10082FF0BC080917B
:10508000E20082FF07C08091E1008B7F8093E10006
:105090000E94A02A8091DA0080FF1FC08091D80072
:1050A00080FF1BC08091DA008E7F8093DA008091B0
:1050B000D90080FF0DC080E189BD82E189BD09B4BE
:1050C00000FEFDCF81E08093B9040E94762405C0E4
:1050D00019BC1092B9040E9484248091E10080FFE1
:1050E00019C08091E20080FF15C08091E2008E7FA0
:1050F0008093E2008091E20080618093E2008091E1
:10510000D80080628093D80019BC85E08093B904F0
:105110000E9488248091E10084FF30C08091E200E9
:1051200084FF2CC080E189BD82E189BD09B400FE05
:10513000FDCF8091D8008F7D8093D8008091E100D1
:105140008F7E8093E1008091E2008F7E8093E20069
:105150008091E20081608093E2008091B504882311
:1051600011F084E007C08091E30087FD02C081E078
:1051700001C083E08093B9040E9489248091E100FA
:1051800083FF29C08091E20083FF25C08091E10068
:10519000877F8093E10082E08093B9041092B50488
:1051A0008091E1008E7F8093E1008091E2008E7F0C
:1051B0008093E2008091E20080618093E20042E00F
:1051C00060E080E00E9428278091F0008860809352
:1051D000F0000E948724FF91EF91BF91AF919F91C2
:1051E0008F917F916F915F914F913F912F910F9090
:1051F0000FBE0F901F9018951F920F920FB60F922F
:1052000011242F933F934F935F936F937F938F93CB
:105210009F93AF93BF93CF93DF93EF93FF93C0918F
:10522000E900CF708091EC00D82FD17080FDD0E8DC
:105230001092E9008091F000877F8093F0007894CD
:105240000E9440291092E9008091F00088608093CC
:10525000F000CD2BCF70C093E900FF91EF91DF916B
:10526000CF91BF91AF919F918F917F916F915F91FE
:105270004F913F912F910F900FBE0F901F90189557
:105280001F93CF93DF93CDB7DEB7AA970FB6F894ED
:10529000DEBF0FBECDBFEAEBF4E08091F100819359
:1052A00024E0E23CF207C9F70E9495248091E800CF
:1052B00083FF2EC18091BA049091BB04492F50E026
:1052C0004A30510508F024C1FA01E556FF4F0C940D
:1052D000F02A803821F0823809F01AC108C0809184
:1052E000B6049091B704992389F082600FC0809131
:1052F000BE048F70873008F00BC18093E900809165
:10530000EB0085FB882780F91092E9009091E80076
:10531000977F9093E8008093F1001092F100D1C044
:10532000282F2D7F09F0F4C0882319F0823061F016
:10533000EFC08091BC04813009F0EAC0933009F0DD
:1053400080E08093B7042EC08091BC0481112AC0F4
:105350008091BE048F702FEF280F263008F0D8C040
:105360008093E9002091EB0020FF1CC0933021F4D2
:105370008091EB00806214C09091EB00906190935B
:10538000EB0021E030E0A90102C0440F551F8A95CF
:10539000E2F74093EA001092EA008091EB00886007
:1053A0008093EB001092E9008091E800877F809362
:1053B000E8000E945D27ACC08111AAC01091BC0416
:1053C0001F778091E3008078812B8093E3008091A8
:1053D000E800877F8093E8000E945D278091E800C5
:1053E00080FFFCCF8091E30080688093E30011117F
:1053F00002C082E001C083E08093B90489C0805874
:10540000823008F085C08091BC049091BD048C3D31
:1054100053E0950779F583E08A838AE289834FB761
:10542000F894DE01139620E03EE051E2E32FF0E035
:1054300050935700E49120FF03C0E295EF703F5F67
:10544000EF708E2F90E0EA3010F0C79601C0C09642
:105450008D939D932F5F243149F74FBF8091E800D2
:10546000877F8093E8006AE270E0CE0101960E9497
:10547000692616C06091BE047091BF04AE014F5FF3
:105480005F4F0E948F25BC01892B09F441C0909188
:10549000E800977F9093E80089819A810E94C7264F
:1054A0008091E8008B778093E80032C0803881F5E6
:1054B0008091E800877F8093E8008091B504809315
:1054C000F1008091E8008E7772CF811121C0809128
:1054D000BC049091BD0499270297D4F48091E80010
:1054E000877F8093E8008091BC048093B5040E947C
:1054F0005D278091B504811106C08091E30087FD8E
:1055000002C081E001C084E08093B9040E948B2432
:105510008091E80083FF0AC08091E800877F809334
:10552000E8008091EB0080628093EB00AA960FB6B2
:10553000F894DEBF0FBECDBFDF91CF911F910895CC
:105540000895CF938091B9048823A1F0C091E90018
:10555000CF709091EC00892F817090FD80E8C82B6E
:105560001092E9008091E80083FD0E944029CF70ED
:10557000C093E900CF910895991B79E004C0991F69
:10558000961708F0961B881F7A95C9F7809508959D
:10559000AA1BBB1B51E107C0AA1FBB1FA617B70759
:1055A00010F0A61BB70B881F991F5A95A9F7809575
:1055B0009095BC01CD01089597FB072E16F4009439
:1055C00007D077FD09D00E94C82A07FC05D03EF419
:1055D000909581959F4F0895709561957F4F08959F
:1055E000EE0FFF1F0590F491E02D0994FB01DC0103
:1055F00002C005900D9241505040D8F70895FC012B
:105600004150504030F001900616D1F73197CF014C
:105610000895882799270895FB01DC0104C08D9126
:105620000190801921F441505040C8F7881B990B14
:105630000895AEE0B0E0EFE1FBE20C94302E0D896E
:105640001E898F89988D26E02C831A83098397FF02
:1056500002C080E090E801979E838D83AE01455E95
:105660005F4F698D7A8DCE0101960E94492B4D8145
:105670005E8157FD0AC02F813885421753070CF40D
:105680009A01F801E20FF31F10822E96E4E00C94C9
:105690004C2EABE0B0E0EFE4FBE20C94222E6C0168
:1056A0007B018A01FC0117821682838181FFCCC1B4
:1056B000CE0101963C01F6019381F70193FD85919E
:1056C00093FF81917F01882309F4BAC1853239F4AF
:1056D00093FD859193FF81917F01853229F4B60175
:1056E00090E00E94402DE7CF912C212C312CFFE13E
:1056F000F315D8F08B3279F038F4803279F08332B8
:10570000A1F4232D20611DC08D3261F0803369F436
:10571000232D216016C0832D8260382EE32DE46096
:105720003E2E2AC0F32DF8601DC037FC2DC020EDA1
:10573000280F2A3040F08E32B9F436FC81C1232D77
:105740002064322E19C036FE06C08AE0989E200DD5
:105750001124922E11C0EAE02E9E200D1124222E3B
:10576000F32DF0623F2E08C08C3621F4832D806823
:10577000382E02C0883641F4F70193FD859193FFDE
:1057800081917F018111B3CF982F9F7D95549330E4
:1057900028F40C5F1F4F9FE399830DC0833631F0CF
:1057A000833771F0833509F059C021C0F801808139
:1057B00089830E5F1F4F88248394912C530113C05B
:1057C0002801F2E04F0E511CF801A080B18036FE96
:1057D00003C0692D70E002C06FEF7FEFC5010E942A
:1057E000352D4C018201F32DFF773F2E16C0280185
:1057F00022E0420E511CF801A080B18036FE03C0A9
:10580000692D70E002C06FEF7FEFC5010E942A2D65
:105810004C01F32DF0683F2E820133FC1BC0822D1A
:1058200090E088169906B0F4B60180E290E00E94FC
:10583000402D2A94F4CFF50137FC859137FE8191F4
:105840005F01B60190E00E94402D21102A9421E0D2
:10585000821A91088114910471F7E8C0843611F01E
:10586000893641F5F80137FE07C060817181828178
:1058700093810C5F1F4F08C060817181072E000C5F
:10588000880B990B0E5F1F4FF32DFF763F2E97FF6E
:1058900009C090958095709561957F4F8F4F9F4F70
:1058A000F0683F2E2AE030E0A3010E947C2D882E74
:1058B000861845C0853731F4232D2F7EB22E2AE07D
:1058C00030E025C0932D997FB92E8F36C1F018F4A2
:1058D000883579F0B5C0803719F0883721F0B0C02D
:1058E000E92FE061BE2EB4FE0DC0FB2DF460BF2E8B
:1058F00009C034FE0AC0292F2660B22E06C028E057
:1059000030E005C020E130E002C020E132E0F801E3
:10591000B7FE07C060817181828193810C5F1F4F48
:1059200006C06081718180E090E00E5F1F4FA3018F
:105930000E947C2D882E8618FB2DFF773F2E36FE89
:105940000DC0232D2E7FA22E891458F434FE0BC0D7
:1059500032FC09C0832D8E7EA82E05C0B82CA32C46
:1059600003C0B82C01C0B92CA4FE0FC0FE01E80D85
:10597000F11D8081803321F49A2D997EA92E09C0D2
:10598000A2FE06C0B394B39404C08A2D867809F0B1
:10599000B394A3FC11C0A0FE06C0B21488F4280C76
:1059A000922C9B180EC0B21460F4B60180E290E015
:1059B0000E94402DB394F7CFB21418F42B1802C0F4
:1059C000982C212CA4FE10C0B60180E390E00E9428
:1059D000402DA2FE17C0A1FC03C088E790E002C0E2
:1059E00088E590E0B6010CC08A2D867859F0A1FEBA
:1059F00002C08BE201C080E2A7FC8DE2B60190E01C
:105A00000E94402D891438F4B60180E390E00E9492
:105A1000402D9A94F7CF8A94F301E80DF11D80810F
:105A2000B60190E00E94402D8110F5CF222009F4AC
:105A300042CEB60180E290E00E94402D2A94F6CF3B
:105A4000F6018681978102C08FEF9FEF2B96E2E1EE
:105A50000C943E2EFC010590615070400110D8F767
:105A6000809590958E0F9F1F0895FC0161507040A6
:105A700001900110D8F7809590958E0F9F1F089583
:105A80000F931F93CF93DF93FB01238121FD03C06D
:105A90008FEF9FEF2CC022FF16C0468157812481D3
:105AA00035814217530744F4A081B1819D012F5FD6
:105AB0003F4F318320838C93268137812F5F3F4F67
:105AC0003783268314C08B01EC01FB010084F18530
:105AD000E02D0995892BE1F6D80116968D919C91C0
